{
  "contractName": "BitwiseCalculator",
  "abi": [
    {
      "constant": true,
      "inputs": [
        {
          "internalType": "string",
          "name": "x",
          "type": "string"
        },
        {
          "internalType": "string",
          "name": "oper",
          "type": "string"
        },
        {
          "internalType": "string",
          "name": "y",
          "type": "string"
        }
      ],
      "name": "calculate",
      "outputs": [
        {
          "internalType": "string",
          "name": "",
          "type": "string"
        }
      ],
      "payable": false,
      "stateMutability": "pure",
      "type": "function"
    }
  ],
  "bytecode": "0x608060405234801561001057600080fd5b50610f56806100206000396000f3fe608060405234801561001057600080fd5b506004361061002b5760003560e01c80636ddd4b2614610030575b600080fd5b6102176004803603606081101561004657600080fd5b810190808035906020019064010000000081111561006357600080fd5b82018360208201111561007557600080fd5b8035906020019184600183028401116401000000008311171561009757600080fd5b91908080601f016020809104026020016040519081016040528093929190818152602001838380828437600081840152601f19601f820116905080830192505050505050509192919290803590602001906401000000008111156100fa57600080fd5b82018360208201111561010c57600080fd5b8035906020019184600183028401116401000000008311171561012e57600080fd5b91908080601f016020809104026020016040519081016040528093929190818152602001838380828437600081840152601f19601f8201169050808301925050505050505091929192908035906020019064010000000081111561019157600080fd5b8201836020820111156101a357600080fd5b803590602001918460018302840111640100000000831117156101c557600080fd5b91908080601f016020809104026020016040519081016040528093929190818152602001838380828437600081840152601f19601f820116905080830192505050505050509192919290505050610292565b6040518080602001828103825283818151815260200191508051906020019080838360005b8381101561025757808201518184015260208101905061023c565b50505050905090810190601f1680156102845780820380516001836020036101000a031916815260200191505b509250505060405180910390f35b606060405160200180807f414e440000000000000000000000000000000000000000000000000000000000815250600301905060405160208183030381529060405280519060200120836040516020018082805190602001908083835b6020831061031257805182526020820191506020810190506020830392506102ef565b6001836020036101000a0380198251168184511680821785525050505050509050019150506040516020818303038152906040528051906020012014156103645761035d848361081a565b9050610813565b60405160200180807f4f52000000000000000000000000000000000000000000000000000000000000815250600201905060405160208183030381529060405280519060200120836040516020018082805190602001908083835b602083106103e257805182526020820191506020810190506020830392506103bf565b6001836020036101000a038019825116818451168082178552505050505050905001915050604051602081830303815290604052805190602001201415610460576040518060400160405280600281526020017f4f520000000000000000000000000000000000000000000000000000000000008152509050610813565b60405160200180807f4e4f540000000000000000000000000000000000000000000000000000000000815250600301905060405160208183030381529060405280519060200120836040516020018082805190602001908083835b602083106104de57805182526020820191506020810190506020830392506104bb565b6001836020036101000a03801982511681845116808217855250505050505090500191505060405160208183030381529060405280519060200120141561052f5761052884610a08565b9050610813565b60405160200180807f4e414e4400000000000000000000000000000000000000000000000000000000815250600401905060405160208183030381529060405280519060200120836040516020018082805190602001908083835b602083106105ad578051825260208201915060208101905060208303925061058a565b6001836020036101000a03801982511681845116808217855250505050505090500191505060405160208183030381529060405280519060200120141561062b576040518060400160405280600481526020017f4e414e44000000000000000000000000000000000000000000000000000000008152509050610813565b60405160200180807f4e4f520000000000000000000000000000000000000000000000000000000000815250600301905060405160208183030381529060405280519060200120836040516020018082805190602001908083835b602083106106a95780518252602082019150602081019050602083039250610686565b6001836020036101000a0380198251168184511680821785525050505050509050019150506040516020818303038152906040528051906020012014156106fb576106f48483610c42565b9050610813565b60405160200180807f584f520000000000000000000000000000000000000000000000000000000000815250600301905060405160208183030381529060405280519060200120836040516020018082805190602001908083835b602083106107795780518252602082019150602081019050602083039250610756565b6001836020036101000a0380198251168184511680821785525050505050509050019150506040516020818303038152906040528051906020012014156107f7576040518060400160405280600381526020017f584f5200000000000000000000000000000000000000000000000000000000008152509050610813565b6040518060600160405280603b8152602001610eb3603b913990505b9392505050565b6060808390506060839050606082516040519080825280601f01601f19166020018201604052801561085b5781602001600182028038833980820191505090505b50905060008090505b83518110156109fb577f310000000000000000000000000000000000000000000000000000000000000084828151811061089a57fe5b602001015160f81c60f81b7effffffffffffffffffffffffffffffffffffffffffffffffffffffffffffff191614801561092b57507f31000000000000000000000000000000000000000000000000000000000000008382815181106108fc57fe5b602001015160f81c60f81b7effffffffffffffffffffffffffffffffffffffffffffffffffffffffffffff1916145b15610991577f310000000000000000000000000000000000000000000000000000000000000082828151811061095d57fe5b60200101907effffffffffffffffffffffffffffffffffffffffffffffffffffffffffffff1916908160001a9053506109ee565b7f30000000000000000000000000000000000000000000000000000000000000008282815181106109be57fe5b60200101907effffffffffffffffffffffffffffffffffffffffffffffffffffffffffffff1916908160001a9053505b8080600101915050610864565b5080935050505092915050565b606080829050606081516040519080825280601f01601f191660200182016040528015610a445781602001600182028038833980820191505090505b50905060008090505b8251811015610c37577f3000000000000000000000000000000000000000000000000000000000000000838281518110610a8357fe5b602001015160f81c60f81b7effffffffffffffffffffffffffffffffffffffffffffffffffffffffffffff19161415610b17577f3100000000000000000000000000000000000000000000000000000000000000828281518110610ae357fe5b60200101907effffffffffffffffffffffffffffffffffffffffffffffffffffffffffffff1916908160001a905350610c2a565b7f3100000000000000000000000000000000000000000000000000000000000000838281518110610b4457fe5b602001015160f81c60f81b7effffffffffffffffffffffffffffffffffffffffffffffffffffffffffffff19161415610bd8577f3000000000000000000000000000000000000000000000000000000000000000828281518110610ba457fe5b60200101907effffffffffffffffffffffffffffffffffffffffffffffffffffffffffffff1916908160001a905350610c29565b6040517f08c379a0000000000000000000000000000000000000000000000000000000008152600401808060200182810382526034815260200180610eee6034913960400191505060405180910390fd5b5b8080600101915050610a4d565b508092505050919050565b6060808390506060839050606082516040519080825280601f01601f191660200182016040528015610c835781602001600182028038833980820191505090505b50905060008090505b8351811015610ea557828181518110610ca157fe5b602001015160f81c60f81b7effffffffffffffffffffffffffffffffffffffffffffffffffffffffffffff1916848281518110610cda57fe5b602001015160f81c60f81b7effffffffffffffffffffffffffffffffffffffffffffffffffffffffffffff19161415610d6e577f3000000000000000000000000000000000000000000000000000000000000000828281518110610d3a57fe5b60200101907effffffffffffffffffffffffffffffffffffffffffffffffffffffffffffff1916908160001a905350610e98565b828181518110610d7a57fe5b602001015160f81c60f81b7effffffffffffffffffffffffffffffffffffffffffffffffffffffffffffff1916848281518110610db357fe5b602001015160f81c60f81b7effffffffffffffffffffffffffffffffffffffffffffffffffffffffffffff191614610e46577f3100000000000000000000000000000000000000000000000000000000000000828281518110610e1257fe5b60200101907effffffffffffffffffffffffffffffffffffffffffffffffffffffffffffff1916908160001a905350610e97565b6040517f08c379a0000000000000000000000000000000000000000000000000000000008152600401808060200182810382526034815260200180610eee6034913960400191505060405180910390fd5b5b8080600101915050610c8c565b508093505050509291505056fe496e76616c6964206f70657261746f722e20506c656173652075736520414e442c204f522c204e4f542c204e414e442c204e4f52206f7220584f52496e76616c696420696e7075742e20506c656173652070726f7669646520612076616c69642062696e617279206e756d6265722ea265627a7a72315820fa8ca3fe14d7ff8c202f24c4531144c65c5e0e584c954a97a195356faee7225164736f6c63430005100032",
  "source": "// SPDX-License-Identifier: MIT\npragma solidity >=0.4.22 <0.9.0;\n\ncontract BitwiseCalculator {\n    function calculate(\n        string memory x,\n        string memory oper,\n        string memory y\n    ) public pure returns (string memory) {\n        \n        if (keccak256(abi.encodePacked(oper)) == keccak256(abi.encodePacked(\"AND\"))){\n            return bitwiseAND(x, y);\n        }\n        else if (keccak256(abi.encodePacked(oper)) == keccak256(abi.encodePacked(\"OR\"))){\n            return \"OR\";\n        }\n        else if (keccak256(abi.encodePacked(oper)) == keccak256(abi.encodePacked(\"NOT\"))){\n             return bitwiseNot(x);\n        }\n        else if (keccak256(abi.encodePacked(oper)) == keccak256(abi.encodePacked(\"NAND\"))){\n            return \"NAND\";\n        }\n        else if (keccak256(abi.encodePacked(oper)) == keccak256(abi.encodePacked(\"NOR\"))){\n            return bitwiseXOR(x, y);\n        }\n        else if (keccak256(abi.encodePacked(oper)) == keccak256(abi.encodePacked(\"XOR\"))){\n            return \"XOR\";\n        }\n        return \"Invalid operator. Please use AND, OR, NOT, NAND, NOR or XOR\";\n    }\n\n    function bitwiseAND(string memory inputX, string memory inputY) private pure returns (string memory) {\n        bytes memory inputBytesX = bytes(inputX);\n        bytes memory inputBytesY = bytes(inputY);\n        bytes memory outputBytes = new bytes(inputBytesX.length);\n\n        for (uint256 i = 0; i < inputBytesX.length; i++) {\n            if (inputBytesX[i] == '1' && inputBytesY[i] == '1') {\n                outputBytes[i] = '1';\n            } else {\n                outputBytes[i] = '0';\n            }\n        }\n        return string(outputBytes);\n\n    }\n\n    function bitwiseNot(string memory input) private pure returns (string memory) {\n        bytes memory inputBytes = bytes(input);\n        bytes memory outputBytes = new bytes(inputBytes.length);\n\n        for (uint256 i = 0; i < inputBytes.length; i++) {\n            if (inputBytes[i] == '0') {\n                outputBytes[i] = '1';\n            } else if (inputBytes[i] == '1') {\n                outputBytes[i] = '0';\n            } else {\n                revert(\"Invalid input. Please provide a valid binary number.\");\n            }\n        }\n\n        return string(outputBytes);\n    }\n\n    function bitwiseXOR(string memory inputX, string memory inputY) private pure returns (string memory) {\n        bytes memory inputBytesX = bytes(inputX);\n        bytes memory inputBytesY = bytes(inputY);\n        bytes memory outputBytes = new bytes(inputBytesX.length);\n\n        for (uint256 i = 0; i < inputBytesX.length; i++) {\n            if (inputBytesX[i] == inputBytesY[i]) {\n                outputBytes[i] = '0';\n            } else if (inputBytesX[i] != inputBytesY[i]) {\n                outputBytes[i] = '1';\n            } else {\n                revert(\"Invalid input. Please provide a valid binary number.\");\n            }\n        }\n        return string(outputBytes);\n\n    }\n\n\n}\n",
  "sourcePath": "/Users/zove/OBT/Готовое/pz-6 (-)/contracts/BitwiseCalculator.sol",
  "compiler": {
    "name": "solc",
    "version": "0.5.16+commit.9c3226ce.Emscripten.clang"
  },
  "schemaVersion": "3.4.16",
  "updatedAt": "2024-02-04T06:50:35.826Z",
  "networkType": "ethereum",
  "devdoc": {
    "methods": {}
  },
  "userdoc": {
    "methods": {}
  }
}