{
  "contractName": "Calculator",
  "abi": [
    {
      "constant": true,
      "inputs": [
        {
          "internalType": "uint256",
          "name": "x",
          "type": "uint256"
        },
        {
          "internalType": "string",
          "name": "oper",
          "type": "string"
        },
        {
          "internalType": "uint256",
          "name": "y",
          "type": "uint256"
        }
      ],
      "name": "calculate",
      "outputs": [
        {
          "internalType": "uint256",
          "name": "",
          "type": "uint256"
        },
        {
          "internalType": "string",
          "name": "",
          "type": "string"
        }
      ],
      "payable": false,
      "stateMutability": "pure",
      "type": "function"
    }
  ],
  "bytecode": "0x608060405234801561001057600080fd5b5061071b806100206000396000f3fe608060405234801561001057600080fd5b506004361061002b5760003560e01c8063cbc0282114610030575b600080fd5b6100fd6004803603606081101561004657600080fd5b81019080803590602001909291908035906020019064010000000081111561006d57600080fd5b82018360208201111561007f57600080fd5b803590602001918460018302840111640100000000831117156100a157600080fd5b91908080601f016020809104026020016040519081016040528093929190818152602001838380828437600081840152601f19601f8201169050808301925050505050505091929192908035906020019092919050505061017f565b6040518083815260200180602001828103825283818151815260200191508051906020019080838360005b83811015610143578082015181840152602081019050610128565b50505050905090810190601f1680156101705780820380516001836020036101000a031916815260200191505b50935050505060405180910390f35b6000606060405160200180807f2b00000000000000000000000000000000000000000000000000000000000000815250600101905060405160208183030381529060405280519060200120846040516020018082805190602001908083835b6020831061020157805182526020820191506020810190506020830392506101de565b6001836020036101000a038019825116818451168082178552505050505050905001915050604051602081830303815290604052805190602001201415610284578285016040518060400160405280602081526020017f4f7065726174696f6e20636f6d706c65746564207375636365737366756c6c79815250915091506106b2565b60405160200180807f2d00000000000000000000000000000000000000000000000000000000000000815250600101905060405160208183030381529060405280519060200120846040516020018082805190602001908083835b6020831061030257805182526020820191506020810190506020830392506102df565b6001836020036101000a038019825116818451168082178552505050505050905001915050604051602081830303815290604052805190602001201415610385578285036040518060400160405280602081526020017f4f7065726174696f6e20636f6d706c65746564207375636365737366756c6c79815250915091506106b2565b60405160200180807f2a00000000000000000000000000000000000000000000000000000000000000815250600101905060405160208183030381529060405280519060200120846040516020018082805190602001908083835b6020831061040357805182526020820191506020810190506020830392506103e0565b6001836020036101000a038019825116818451168082178552505050505050905001915050604051602081830303815290604052805190602001201415610486578285026040518060400160405280602081526020017f4f7065726174696f6e20636f6d706c65746564207375636365737366756c6c79815250915091506106b2565b60405160200180807f2f00000000000000000000000000000000000000000000000000000000000000815250600101905060405160208183030381529060405280519060200120846040516020018082805190602001908083835b6020831061050457805182526020820191506020810190506020830392506104e1565b6001836020036101000a03801982511681845116808217855250505050505090500191505060405160208183030381529060405280519060200120141561058e5782858161054e57fe5b046040518060400160405280602081526020017f4f7065726174696f6e20636f6d706c65746564207375636365737366756c6c79815250915091506106b2565b60405160200180807f5e00000000000000000000000000000000000000000000000000000000000000815250600101905060405160208183030381529060405280519060200120846040516020018082805190602001908083835b6020831061060c57805182526020820191506020810190506020830392506105e9565b6001836020036101000a03801982511681845116808217855250505050505090500191505060405160208183030381529060405280519060200120141561068f5782850a6040518060400160405280602081526020017f4f7065726174696f6e20636f6d706c65746564207375636365737366756c6c79815250915091506106b2565b60008090506040518060600160405280602c81526020016106bb602c9139915091505b93509391505056fe496e76616c6964206f70657261746f722e20506c6561736520757365202b2c202d2c205e2c202a206f72202fa265627a7a72315820d1e3fc819193b1fbc43f352a569cc6237a408ae22d8afdcfa5a21e1f80634cb264736f6c63430005100032",
  "source": "// SPDX-License-Identifier: MIT\npragma solidity >=0.4.22 <0.9.0;\n\ncontract Calculator {\n    function calculate(\n        uint256 x,\n        string memory oper,\n        uint256 y\n    ) public pure returns (uint256, string memory) {\n        if(keccak256(abi.encodePacked(oper)) == (keccak256(abi.encodePacked(\"+\")))){\n          return (x + y, \"Operation completed successfully\");\n        }\n        else if(keccak256(abi.encodePacked(oper)) == (keccak256(abi.encodePacked(\"-\")))){\n          return (x - y, \"Operation completed successfully\");\n        }\n        else if(keccak256(abi.encodePacked(oper)) == (keccak256(abi.encodePacked(\"*\")))){\n          return (x * y, \"Operation completed successfully\");\n        }\n        else if(keccak256(abi.encodePacked(oper)) == (keccak256(abi.encodePacked(\"/\")))){\n          return (x / y, \"Operation completed successfully\");\n        }\n        else if (keccak256(abi.encodePacked(oper)) == (keccak256(abi.encodePacked(\"^\")))){\n          return (x ** y, \"Operation completed successfully\");\n        }\n        else {\n            return(0, \"Invalid operator. Please use +, -, ^, * or /\");\n        }\n    }\n}\n",
  "sourcePath": "/Users/zove/OBT/Готовое/pz-6 (-)/contracts/Calculator.sol",
  "compiler": {
    "name": "solc",
    "version": "0.5.16+commit.9c3226ce.Emscripten.clang"
  },
  "schemaVersion": "3.4.16",
  "updatedAt": "2024-02-04T06:50:35.737Z",
  "networkType": "ethereum",
  "devdoc": {
    "methods": {}
  },
  "userdoc": {
    "methods": {}
  }
}