{
  "contractName": "FileStorage",
  "abi": [
    {
      "anonymous": false,
      "inputs": [
        {
          "indexed": true,
          "internalType": "bytes32",
          "name": "fileHash",
          "type": "bytes32"
        },
        {
          "indexed": false,
          "internalType": "uint256",
          "name": "timestamp",
          "type": "uint256"
        },
        {
          "indexed": false,
          "internalType": "string",
          "name": "uploader",
          "type": "string"
        },
        {
          "indexed": false,
          "internalType": "string",
          "name": "fileName",
          "type": "string"
        }
      ],
      "name": "FileUploaded",
      "type": "event"
    },
    {
      "constant": true,
      "inputs": [
        {
          "internalType": "bytes32",
          "name": "",
          "type": "bytes32"
        }
      ],
      "name": "fileInfos",
      "outputs": [
        {
          "internalType": "uint256",
          "name": "timestamp",
          "type": "uint256"
        },
        {
          "internalType": "string",
          "name": "uploader",
          "type": "string"
        },
        {
          "internalType": "string",
          "name": "fileName",
          "type": "string"
        },
        {
          "internalType": "bytes32",
          "name": "fileHash",
          "type": "bytes32"
        }
      ],
      "payable": false,
      "stateMutability": "view",
      "type": "function"
    },
    {
      "constant": false,
      "inputs": [
        {
          "internalType": "bytes",
          "name": "file",
          "type": "bytes"
        },
        {
          "internalType": "string",
          "name": "userName",
          "type": "string"
        },
        {
          "internalType": "string",
          "name": "fileName",
          "type": "string"
        }
      ],
      "name": "uploadFile",
      "outputs": [
        {
          "internalType": "bytes32",
          "name": "",
          "type": "bytes32"
        }
      ],
      "payable": false,
      "stateMutability": "nonpayable",
      "type": "function"
    },
    {
      "constant": true,
      "inputs": [
        {
          "internalType": "bytes",
          "name": "file",
          "type": "bytes"
        }
      ],
      "name": "getFileInfo",
      "outputs": [
        {
          "internalType": "uint256",
          "name": "",
          "type": "uint256"
        },
        {
          "internalType": "string",
          "name": "",
          "type": "string"
        },
        {
          "internalType": "string",
          "name": "",
          "type": "string"
        },
        {
          "internalType": "bytes32",
          "name": "",
          "type": "bytes32"
        }
      ],
      "payable": false,
      "stateMutability": "view",
      "type": "function"
    }
  ],
  "bytecode": "0x608060405234801561001057600080fd5b50610bf3806100206000396000f3fe608060405234801561001057600080fd5b50600436106100415760003560e01c80631dfe65b11461004657806368598b9714610243578063d961e0d8146103f1575b600080fd5b61022d6004803603606081101561005c57600080fd5b810190808035906020019064010000000081111561007957600080fd5b82018360208201111561008b57600080fd5b803590602001918460018302840111640100000000831117156100ad57600080fd5b91908080601f016020809104026020016040519081016040528093929190818152602001838380828437600081840152601f19601f8201169050808301925050505050505091929192908035906020019064010000000081111561011057600080fd5b82018360208201111561012257600080fd5b8035906020019184600183028401116401000000008311171561014457600080fd5b91908080601f016020809104026020016040519081016040528093929190818152602001838380828437600081840152601f19601f820116905080830192505050505050509192919290803590602001906401000000008111156101a757600080fd5b8201836020820111156101b957600080fd5b803590602001918460018302840111640100000000831117156101db57600080fd5b91908080601f016020809104026020016040519081016040528093929190818152602001838380828437600081840152601f19601f820116905080830192505050505050509192919290505050610512565b6040518082815260200191505060405180910390f35b6102fc6004803603602081101561025957600080fd5b810190808035906020019064010000000081111561027657600080fd5b82018360208201111561028857600080fd5b803590602001918460018302840111640100000000831117156102aa57600080fd5b91908080601f016020809104026020016040519081016040528093929190818152602001838380828437600081840152601f19601f820116905080830192505050505050509192919290505050610757565b604051808581526020018060200180602001848152602001838103835286818151815260200191508051906020019080838360005b8381101561034c578082015181840152602081019050610331565b50505050905090810190601f1680156103795780820380516001836020036101000a031916815260200191505b50838103825285818151815260200191508051906020019080838360005b838110156103b2578082015181840152602081019050610397565b50505050905090810190601f1680156103df5780820380516001836020036101000a031916815260200191505b50965050505050505060405180910390f35b61041d6004803603602081101561040757600080fd5b810190808035906020019092919050505061098e565b604051808581526020018060200180602001848152602001838103835286818151815260200191508051906020019080838360005b8381101561046d578082015181840152602081019050610452565b50505050905090810190601f16801561049a5780820380516001836020036101000a031916815260200191505b50838103825285818151815260200191508051906020019080838360005b838110156104d35780820151818401526020810190506104b8565b50505050905090810190601f1680156105005780820380516001836020036101000a031916815260200191505b50965050505050505060405180910390f35b60008084805190602001209050600080600083815260200190815260200160002060000154146105aa576040517f08c379a00000000000000000000000000000000000000000000000000000000081526004018080602001828103825260138152602001807f46696c6520616c7265616479206578697374730000000000000000000000000081525060200191505060405180910390fd5b6105b2610aee565b60405180608001604052804281526020018681526020018581526020018381525090508060008084815260200190815260200160002060008201518160000155602082015181600101908051906020019061060e929190610b19565b50604082015181600201908051906020019061062b929190610b19565b5060608201518160030155905050817f516e17b31966d3754114b89f61a0d744ad9b06b157c8b332bea0adce427fe04f428787604051808481526020018060200180602001838103835285818151815260200191508051906020019080838360005b838110156106a857808201518184015260208101905061068d565b50505050905090810190601f1680156106d55780820380516001836020036101000a031916815260200191505b50838103825284818151815260200191508051906020019080838360005b8381101561070e5780820151818401526020810190506106f3565b50505050905090810190601f16801561073b5780820380516001836020036101000a031916815260200191505b509550505050505060405180910390a281925050509392505050565b600060608060008085805190602001209050610771610aee565b60008083815260200190815260200160002060405180608001604052908160008201548152602001600182018054600181600116156101000203166002900480601f0160208091040260200160405190810160405280929190818152602001828054600181600116156101000203166002900480156108315780601f1061080657610100808354040283529160200191610831565b820191906000526020600020905b81548152906001019060200180831161081457829003601f168201915b50505050508152602001600282018054600181600116156101000203166002900480601f0160208091040260200160405190810160405280929190818152602001828054600181600116156101000203166002900480156108d35780601f106108a8576101008083540402835291602001916108d3565b820191906000526020600020905b8154815290600101906020018083116108b657829003601f168201915b505050505081526020016003820154815250509050600081600001511415610963576040517f08c379a000000000000000000000000000000000000000000000000000000000815260040180806020018281038252600e8152602001807f46696c65206e6f7420666f756e6400000000000000000000000000000000000081525060200191505060405180910390fd5b8060000151816020015182604001518360600151829250819150955095509550955050509193509193565b6000602052806000526040600020600091509050806000015490806001018054600181600116156101000203166002900480601f016020809104026020016040519081016040528092919081815260200182805460018160011615610100020316600290048015610a405780601f10610a1557610100808354040283529160200191610a40565b820191906000526020600020905b815481529060010190602001808311610a2357829003601f168201915b505050505090806002018054600181600116156101000203166002900480601f016020809104026020016040519081016040528092919081815260200182805460018160011615610100020316600290048015610ade5780601f10610ab357610100808354040283529160200191610ade565b820191906000526020600020905b815481529060010190602001808311610ac157829003601f168201915b5050505050908060030154905084565b6040518060800160405280600081526020016060815260200160608152602001600080191681525090565b828054600181600116156101000203166002900490600052602060002090601f016020900481019282601f10610b5a57805160ff1916838001178555610b88565b82800160010185558215610b88579182015b82811115610b87578251825591602001919060010190610b6c565b5b509050610b959190610b99565b5090565b610bbb91905b80821115610bb7576000816000905550600101610b9f565b5090565b9056fea265627a7a723158203f5c1025f21ea6b72ac5e819dd4a46ba405b8101d2119ab67edd295b6535ac4e64736f6c63430005100032",
  "source": "// SPDX-License-Identifier: MIT\npragma solidity >=0.4.22 <0.9.0;\n\ncontract FileStorage {\n    struct FileInfo {\n        uint256 timestamp;\n        string uploader;\n        string fileName;\n        bytes32 fileHash;\n    }\n\n    mapping(bytes32 => FileInfo) public fileInfos;\n\n    event FileUploaded(bytes32 indexed fileHash, uint256 timestamp, string uploader, string fileName);\n\n    function uploadFile(bytes memory file, string memory userName, string memory fileName) public returns (bytes32) {\n        bytes32 fileHash = keccak256(file);\n        require(fileInfos[fileHash].timestamp == 0, \"File already exists\");\n\n        FileInfo memory newFileInfo = FileInfo(block.timestamp, userName, fileName, fileHash);\n        fileInfos[fileHash] = newFileInfo;\n\n        emit FileUploaded(fileHash, block.timestamp, userName, fileName);\n\n        return fileHash;\n    }\n\n    function getFileInfo(bytes memory file) public view returns (uint256, string memory, string memory, bytes32) {\n        bytes32 fileHash = keccak256(file);\n        FileInfo memory info = fileInfos[fileHash];\n        require(info.timestamp != 0, \"File not found\");\n\n        return (info.timestamp, info.uploader, info.fileName, info.fileHash);\n    }\n}\n",
  "sourcePath": "/Users/zove/WebstormProjects/ethereum-react-app/solidity-contracts/contracts/FileStorage.sol",
  "compiler": {
    "name": "solc",
    "version": "0.5.16+commit.9c3226ce.Emscripten.clang"
  },
  "schemaVersion": "3.4.16",
  "updatedAt": "2024-02-07T11:48:29.772Z",
  "networkType": "ethereum",
  "devdoc": {
    "methods": {}
  },
  "userdoc": {
    "methods": {}
  }
}