{
  "contractName": "Store",
  "abi": [
    {
      "inputs": [],
      "payable": false,
      "stateMutability": "nonpayable",
      "type": "constructor"
    },
    {
      "constant": true,
      "inputs": [],
      "name": "reviewCounter",
      "outputs": [
        {
          "internalType": "uint256",
          "name": "",
          "type": "uint256"
        }
      ],
      "payable": false,
      "stateMutability": "view",
      "type": "function"
    },
    {
      "constant": true,
      "inputs": [],
      "name": "storeCounter",
      "outputs": [
        {
          "internalType": "uint256",
          "name": "",
          "type": "uint256"
        }
      ],
      "payable": false,
      "stateMutability": "view",
      "type": "function"
    },
    {
      "constant": true,
      "inputs": [],
      "name": "userCounter",
      "outputs": [
        {
          "internalType": "uint256",
          "name": "",
          "type": "uint256"
        }
      ],
      "payable": false,
      "stateMutability": "view",
      "type": "function"
    },
    {
      "constant": false,
      "inputs": [
        {
          "internalType": "string",
          "name": "name",
          "type": "string"
        },
        {
          "internalType": "address",
          "name": "userAddress",
          "type": "address"
        }
      ],
      "name": "registerUser",
      "outputs": [],
      "payable": false,
      "stateMutability": "nonpayable",
      "type": "function"
    },
    {
      "constant": false,
      "inputs": [
        {
          "internalType": "string",
          "name": "name",
          "type": "string"
        },
        {
          "internalType": "address",
          "name": "owner",
          "type": "address"
        }
      ],
      "name": "registerStore",
      "outputs": [],
      "payable": false,
      "stateMutability": "nonpayable",
      "type": "function"
    },
    {
      "constant": false,
      "inputs": [
        {
          "internalType": "address",
          "name": "storeAddress",
          "type": "address"
        }
      ],
      "name": "approveStore",
      "outputs": [],
      "payable": false,
      "stateMutability": "nonpayable",
      "type": "function"
    },
    {
      "constant": false,
      "inputs": [
        {
          "internalType": "string",
          "name": "comment",
          "type": "string"
        },
        {
          "internalType": "uint256",
          "name": "rating",
          "type": "uint256"
        },
        {
          "internalType": "address",
          "name": "storeAddress",
          "type": "address"
        }
      ],
      "name": "registerReview",
      "outputs": [],
      "payable": false,
      "stateMutability": "nonpayable",
      "type": "function"
    },
    {
      "constant": true,
      "inputs": [
        {
          "internalType": "address",
          "name": "storeAddress",
          "type": "address"
        }
      ],
      "name": "getReviewsForStore",
      "outputs": [
        {
          "components": [
            {
              "internalType": "string",
              "name": "comment",
              "type": "string"
            },
            {
              "internalType": "uint256",
              "name": "rating",
              "type": "uint256"
            },
            {
              "internalType": "uint256",
              "name": "likes",
              "type": "uint256"
            },
            {
              "internalType": "uint256",
              "name": "dislikes",
              "type": "uint256"
            },
            {
              "internalType": "address",
              "name": "author",
              "type": "address"
            },
            {
              "internalType": "address",
              "name": "store",
              "type": "address"
            },
            {
              "internalType": "bool",
              "name": "approved",
              "type": "bool"
            }
          ],
          "internalType": "struct Store.Review[]",
          "name": "",
          "type": "tuple[]"
        }
      ],
      "payable": false,
      "stateMutability": "view",
      "type": "function"
    },
    {
      "constant": true,
      "inputs": [],
      "name": "getApprovedStores",
      "outputs": [
        {
          "components": [
            {
              "internalType": "string",
              "name": "name",
              "type": "string"
            },
            {
              "internalType": "address",
              "name": "owner",
              "type": "address"
            },
            {
              "internalType": "bool",
              "name": "approved",
              "type": "bool"
            }
          ],
          "internalType": "struct Store.StoreInfo[]",
          "name": "",
          "type": "tuple[]"
        }
      ],
      "payable": false,
      "stateMutability": "view",
      "type": "function"
    },
    {
      "constant": true,
      "inputs": [],
      "name": "getAllUsers",
      "outputs": [
        {
          "components": [
            {
              "internalType": "string",
              "name": "name",
              "type": "string"
            },
            {
              "internalType": "bool",
              "name": "isAdmin",
              "type": "bool"
            },
            {
              "internalType": "bool",
              "name": "isSeller",
              "type": "bool"
            },
            {
              "internalType": "bool",
              "name": "isBuyer",
              "type": "bool"
            }
          ],
          "internalType": "struct Store.UserInfo[]",
          "name": "",
          "type": "tuple[]"
        }
      ],
      "payable": false,
      "stateMutability": "view",
      "type": "function"
    }
  ],
  "bytecode": "0x60806040526000600255600060045560006007553480156200002057600080fd5b5060405180608001604052806040518060400160405280600581526020017f41646d696e0000000000000000000000000000000000000000000000000000008152508152602001600115158152602001600015158152602001600015158152506000803373ffffffffffffffffffffffffffffffffffffffff1673ffffffffffffffffffffffffffffffffffffffff1681526020019081526020016000206000820151816000019080519060200190620000dc92919062000367565b5060208201518160010160006101000a81548160ff02191690831515021790555060408201518160010160016101000a81548160ff02191690831515021790555060608201518160010160026101000a81548160ff02191690831515021790555090505060013390806001815401808255809150509060018203906000526020600020016000909192909190916101000a81548173ffffffffffffffffffffffffffffffffffffffff021916908373ffffffffffffffffffffffffffffffffffffffff1602179055505060026000815480929190600101919050555060405180606001604052806040518060400160405280600d81526020017f44656661756c742053746f72650000000000000000000000000000000000000081525081526020013373ffffffffffffffffffffffffffffffffffffffff16815260200160011515815250600560003373ffffffffffffffffffffffffffffffffffffffff1673ffffffffffffffffffffffffffffffffffffffff16815260200190815260200160002060008201518160000190805190602001906200027e92919062000367565b5060208201518160010160006101000a81548173ffffffffffffffffffffffffffffffffffffffff021916908373ffffffffffffffffffffffffffffffffffffffff16021790555060408201518160010160146101000a81548160ff02191690831515021790555090505060063390806001815401808255809150509060018203906000526020600020016000909192909190916101000a81548173ffffffffffffffffffffffffffffffffffffffff021916908373ffffffffffffffffffffffffffffffffffffffff1602179055505060076000815480929190600101919050555062000416565b828054600181600116156101000203166002900490600052602060002090601f016020900481019282601f10620003aa57805160ff1916838001178555620003db565b82800160010185558215620003db579182015b82811115620003da578251825591602001919060010190620003bd565b5b509050620003ea9190620003ee565b5090565b6200041391905b808211156200040f576000816000905550600101620003f5565b5090565b90565b611a3880620004266000396000f3fe608060405234801561001057600080fd5b506004361061009e5760003560e01c8063b9ca868d11610066578063b9ca868d14610143578063bbcbab8114610161578063e168b3a81461017f578063e2842d791461019d578063f0c37a59146101bb5761009e565b80630e54b872146100a357806331157c15146100bf5780636d1e9323146100db57806370d30ba21461010b578063ab45500a14610127575b600080fd5b6100bd60048036036100b891908101906112a0565b6101d9565b005b6100d960048036036100d49190810190611277565b61047c565b005b6100f560048036036100f09190810190611277565b610568565b604051610102919061173a565b60405180910390f35b610125600480360361012091908101906112f4565b61088d565b005b610141600480360361013c91908101906112a0565b610a09565b005b61014b610b7f565b60405161015891906117e0565b60405180910390f35b610169610b85565b604051610176919061175c565b60405180910390f35b610187610e4c565b60405161019491906117e0565b60405180910390f35b6101a5610e52565b6040516101b2919061177e565b60405180910390f35b6101c3611043565b6040516101d091906117e0565b60405180910390f35b6000808273ffffffffffffffffffffffffffffffffffffffff1673ffffffffffffffffffffffffffffffffffffffff16815260200190815260200160002060010160009054906101000a900460ff1615801561028157506000808273ffffffffffffffffffffffffffffffffffffffff1673ffffffffffffffffffffffffffffffffffffffff16815260200190815260200160002060010160019054906101000a900460ff16155b80156102d957506000808273ffffffffffffffffffffffffffffffffffffffff1673ffffffffffffffffffffffffffffffffffffffff16815260200190815260200160002060010160029054906101000a900460ff16155b610318576040517f08c379a000000000000000000000000000000000000000000000000000000000815260040161030f906117a0565b60405180910390fd5b6040518060800160405280838152602001600015158152602001600015158152602001600015158152506000808373ffffffffffffffffffffffffffffffffffffffff1673ffffffffffffffffffffffffffffffffffffffff168152602001908152602001600020600082015181600001908051906020019061039c929190611049565b5060208201518160010160006101000a81548160ff02191690831515021790555060408201518160010160016101000a81548160ff02191690831515021790555060608201518160010160026101000a81548160ff02191690831515021790555090505060018190806001815401808255809150509060018203906000526020600020016000909192909190916101000a81548173ffffffffffffffffffffffffffffffffffffffff021916908373ffffffffffffffffffffffffffffffffffffffff160217905550506002600081548092919060010191905055505050565b6000803373ffffffffffffffffffffffffffffffffffffffff1673ffffffffffffffffffffffffffffffffffffffff16815260200190815260200160002060010160009054906101000a900460ff1661050a576040517f08c379a0000000000000000000000000000000000000000000000000000000008152600401610501906117c0565b60405180910390fd5b6001600560008373ffffffffffffffffffffffffffffffffffffffff1673ffffffffffffffffffffffffffffffffffffffff16815260200190815260200160002060010160146101000a81548160ff02191690831515021790555050565b6060806004546040519080825280602002602001820160405280156105a757816020015b6105946110c9565b81526020019060019003908161058c5790505b50905060008090506000600190505b60045481116107fb578473ffffffffffffffffffffffffffffffffffffffff166003600083815260200190815260200160002060050160009054906101000a900473ffffffffffffffffffffffffffffffffffffffff1673ffffffffffffffffffffffffffffffffffffffff1614156107ee57600360008281526020019081526020016000206040518060e0016040529081600082018054600181600116156101000203166002900480601f0160208091040260200160405190810160405280929190818152602001828054600181600116156101000203166002900480156106e05780601f106106b5576101008083540402835291602001916106e0565b820191906000526020600020905b8154815290600101906020018083116106c357829003601f168201915b505050505081526020016001820154815260200160028201548152602001600382015481526020016004820160009054906101000a900473ffffffffffffffffffffffffffffffffffffffff1673ffffffffffffffffffffffffffffffffffffffff1673ffffffffffffffffffffffffffffffffffffffff1681526020016005820160009054906101000a900473ffffffffffffffffffffffffffffffffffffffff1673ffffffffffffffffffffffffffffffffffffffff1673ffffffffffffffffffffffffffffffffffffffff1681526020016005820160149054906101000a900460ff1615151515815250508383815181106107da57fe5b602002602001018190525081806001019250505b80806001019150506105b6565b5060608160405190808252806020026020018201604052801561083857816020015b6108256110c9565b81526020019060019003908161081d5790505b50905060008090505b828110156108815783818151811061085557fe5b602002602001015182828151811061086957fe5b60200260200101819052508080600101915050610841565b50809350505050919050565b6004600081548092919060010191905055506040518060e0016040528084815260200183815260200160008152602001600081526020013373ffffffffffffffffffffffffffffffffffffffff1681526020018273ffffffffffffffffffffffffffffffffffffffff168152602001600115158152506003600060045481526020019081526020016000206000820151816000019080519060200190610934929190611049565b5060208201518160010155604082015181600201556060820151816003015560808201518160040160006101000a81548173ffffffffffffffffffffffffffffffffffffffff021916908373ffffffffffffffffffffffffffffffffffffffff16021790555060a08201518160050160006101000a81548173ffffffffffffffffffffffffffffffffffffffff021916908373ffffffffffffffffffffffffffffffffffffffff16021790555060c08201518160050160146101000a81548160ff021916908315150217905550905050505050565b60405180606001604052808381526020018273ffffffffffffffffffffffffffffffffffffffff16815260200160001515815250600560008373ffffffffffffffffffffffffffffffffffffffff1673ffffffffffffffffffffffffffffffffffffffff1681526020019081526020016000206000820151816000019080519060200190610a98929190611049565b5060208201518160010160006101000a81548173ffffffffffffffffffffffffffffffffffffffff021916908373ffffffffffffffffffffffffffffffffffffffff16021790555060408201518160010160146101000a81548160ff02191690831515021790555090505060068190806001815401808255809150509060018203906000526020600020016000909192909190916101000a81548173ffffffffffffffffffffffffffffffffffffffff021916908373ffffffffffffffffffffffffffffffffffffffff160217905550506007600081548092919060010191905055505050565b60075481565b606080600754604051908082528060200260200182016040528015610bc457816020015b610bb1611134565b815260200190600190039081610ba95790505b509050600080905060008090505b600680549050811015610dbc57600060068281548110610bee57fe5b9060005260206000200160009054906101000a900473ffffffffffffffffffffffffffffffffffffffff169050610c2361116d565b600560008373ffffffffffffffffffffffffffffffffffffffff1673ffffffffffffffffffffffffffffffffffffffff168152602001908152602001600020604051806060016040529081600082018054600181600116156101000203166002900480601f016020809104026020016040519081016040528092919081815260200182805460018160011615610100020316600290048015610d065780601f10610cdb57610100808354040283529160200191610d06565b820191906000526020600020905b815481529060010190602001808311610ce957829003601f168201915b505050505081526020016001820160009054906101000a900473ffffffffffffffffffffffffffffffffffffffff1673ffffffffffffffffffffffffffffffffffffffff1673ffffffffffffffffffffffffffffffffffffffff1681526020016001820160149054906101000a900460ff1615151515815250509050806040015115610dad5780858581518110610d9957fe5b602002602001018190525083806001019450505b50508080600101915050610bd2565b50606081604051908082528060200260200182016040528015610df957816020015b610de6611134565b815260200190600190039081610dde5790505b50905060008090505b82811015610e4257838181518110610e1657fe5b6020026020010151828281518110610e2a57fe5b60200260200101819052508080600101915050610e02565b5080935050505090565b60045481565b606080600254604051908082528060200260200182016040528015610e9157816020015b610e7e6111a6565b815260200190600190039081610e765790505b50905060008090505b60025481101561103b5760008060018381548110610eb457fe5b9060005260206000200160009054906101000a900473ffffffffffffffffffffffffffffffffffffffff1673ffffffffffffffffffffffffffffffffffffffff1673ffffffffffffffffffffffffffffffffffffffff168152602001908152602001600020604051806080016040529081600082018054600181600116156101000203166002900480601f016020809104026020016040519081016040528092919081815260200182805460018160011615610100020316600290048015610fbd5780601f10610f9257610100808354040283529160200191610fbd565b820191906000526020600020905b815481529060010190602001808311610fa057829003601f168201915b505050505081526020016001820160009054906101000a900460ff161515151581526020016001820160019054906101000a900460ff161515151581526020016001820160029054906101000a900460ff16151515158152505082828151811061102357fe5b60200260200101819052508080600101915050610e9a565b508091505090565b60025481565b828054600181600116156101000203166002900490600052602060002090601f016020900481019282601f1061108a57805160ff19168380011785556110b8565b828001600101855582156110b8579182015b828111156110b757825182559160200191906001019061109c565b5b5090506110c591906111d4565b5090565b6040518060e0016040528060608152602001600081526020016000815260200160008152602001600073ffffffffffffffffffffffffffffffffffffffff168152602001600073ffffffffffffffffffffffffffffffffffffffff1681526020016000151581525090565b604051806060016040528060608152602001600073ffffffffffffffffffffffffffffffffffffffff1681526020016000151581525090565b604051806060016040528060608152602001600073ffffffffffffffffffffffffffffffffffffffff1681526020016000151581525090565b6040518060800160405280606081526020016000151581526020016000151581526020016000151581525090565b6111f691905b808211156111f25760008160009055506001016111da565b5090565b90565b600081359050611208816119c7565b92915050565b600082601f83011261121f57600080fd5b813561123261122d82611828565b6117fb565b9150808252602083016020830185838301111561124e57600080fd5b611259838284611974565b50505092915050565b600081359050611271816119de565b92915050565b60006020828403121561128957600080fd5b6000611297848285016111f9565b91505092915050565b600080604083850312156112b357600080fd5b600083013567ffffffffffffffff8111156112cd57600080fd5b6112d98582860161120e565b92505060206112ea858286016111f9565b9150509250929050565b60008060006060848603121561130957600080fd5b600084013567ffffffffffffffff81111561132357600080fd5b61132f8682870161120e565b935050602061134086828701611262565b9250506040611351868287016111f9565b9150509250925092565b600061136783836115cd565b905092915050565b600061137b8383611669565b905092915050565b600061138f83836116b9565b905092915050565b6113a08161192c565b82525050565b60006113b182611884565b6113bb81856118d7565b9350836020820285016113cd85611854565b8060005b8581101561140957848403895281516113ea858261135b565b94506113f5836118b0565b925060208a019950506001810190506113d1565b50829750879550505050505092915050565b60006114268261188f565b61143081856118e8565b93508360208202850161144285611864565b8060005b8581101561147e578484038952815161145f858261136f565b945061146a836118bd565b925060208a01995050600181019050611446565b50829750879550505050505092915050565b600061149b8261189a565b6114a581856118f9565b9350836020820285016114b785611874565b8060005b858110156114f357848403895281516114d48582611383565b94506114df836118ca565b925060208a019950506001810190506114bb565b50829750879550505050505092915050565b61150e8161193e565b82525050565b600061151f826118a5565b611529818561190a565b9350611539818560208601611983565b611542816119b6565b840191505092915050565b600061155a60178361191b565b91507f5573657220616c726561647920726567697374657265640000000000000000006000830152602082019050919050565b600061159a601e8361191b565b91507f4f6e6c792061646d696e732063616e20617070726f76652073746f72657300006000830152602082019050919050565b600060e08301600083015184820360008601526115ea8282611514565b91505060208301516115ff602086018261171c565b506040830151611612604086018261171c565b506060830151611625606086018261171c565b5060808301516116386080860182611397565b5060a083015161164b60a0860182611397565b5060c083015161165e60c0860182611505565b508091505092915050565b600060608301600083015184820360008601526116868282611514565b915050602083015161169b6020860182611397565b5060408301516116ae6040860182611505565b508091505092915050565b600060808301600083015184820360008601526116d68282611514565b91505060208301516116eb6020860182611505565b5060408301516116fe6040860182611505565b5060608301516117116060860182611505565b508091505092915050565b6117258161196a565b82525050565b6117348161196a565b82525050565b6000602082019050818103600083015261175481846113a6565b905092915050565b60006020820190508181036000830152611776818461141b565b905092915050565b600060208201905081810360008301526117988184611490565b905092915050565b600060208201905081810360008301526117b98161154d565b9050919050565b600060208201905081810360008301526117d98161158d565b9050919050565b60006020820190506117f5600083018461172b565b92915050565b6000604051905081810181811067ffffffffffffffff8211171561181e57600080fd5b8060405250919050565b600067ffffffffffffffff82111561183f57600080fd5b601f19601f8301169050602081019050919050565b6000819050602082019050919050565b6000819050602082019050919050565b6000819050602082019050919050565b600081519050919050565b600081519050919050565b600081519050919050565b600081519050919050565b6000602082019050919050565b6000602082019050919050565b6000602082019050919050565b600082825260208201905092915050565b600082825260208201905092915050565b600082825260208201905092915050565b600082825260208201905092915050565b600082825260208201905092915050565b60006119378261194a565b9050919050565b60008115159050919050565b600073ffffffffffffffffffffffffffffffffffffffff82169050919050565b6000819050919050565b82818337600083830152505050565b60005b838110156119a1578082015181840152602081019050611986565b838111156119b0576000848401525b50505050565b6000601f19601f8301169050919050565b6119d08161192c565b81146119db57600080fd5b50565b6119e78161196a565b81146119f257600080fd5b5056fea365627a7a72315820f4bc416ba64665f513131cc65ef7ad2d9671857730c2d4c5e22d4539b2042c306c6578706572696d656e74616cf564736f6c63430005100040",
  "source": "// SPDX-License-Identifier: MIT\npragma solidity >=0.4.22 <0.9.0;\n\npragma experimental ABIEncoderV2;\n\n\ncontract Store {\n    struct Review {\n        string comment;\n        uint rating;\n        uint likes;\n        uint dislikes;\n        address author;\n        address store;\n        bool approved;\n    }\n\n    struct StoreInfo {\n        string name;\n        address owner;\n        bool approved;\n    }\n\n    struct UserInfo {\n        string name;\n        bool isAdmin;\n        bool isSeller;\n        bool isBuyer;\n    }\n\n    mapping(address => UserInfo) private users;\n    address[] private userAddresses;\n    uint public userCounter = 0;\n\n    mapping(uint => Review) private reviews;\n    uint public reviewCounter = 0;\n\n    mapping(address => StoreInfo) private stores;\n    address[] private storeAddresses;\n    uint public storeCounter = 0;\n\n    constructor() public {\n        // Initialize the first user as an admin.\n        users[msg.sender] = UserInfo(\"Admin\", true, false, false);\n        userAddresses.push(msg.sender);\n        userCounter++;\n\n        // Initialize the default store.\n        stores[msg.sender] = StoreInfo(\"Default Store\", msg.sender, true);\n        storeAddresses.push(msg.sender);\n        storeCounter++;\n    }\n\n    function registerUser(string memory name, address userAddress) public {\n        require(!users[userAddress].isAdmin && !users[userAddress].isSeller && !users[userAddress].isBuyer, \"User already registered\");\n        users[userAddress] = UserInfo(name, false, false, false);\n        userAddresses.push(userAddress);\n        userCounter++;\n    }\n\n    function registerStore(string memory name, address owner) public {\n        stores[owner] = StoreInfo(name, owner, false);\n        storeAddresses.push(owner);\n        storeCounter++;\n    }\n\n    function approveStore(address storeAddress) public {\n        require(users[msg.sender].isAdmin, \"Only admins can approve stores\");\n        stores[storeAddress].approved = true;\n    }\n\n    function registerReview(string memory comment, uint rating, address storeAddress) public {\n        reviewCounter++;\n        reviews[reviewCounter] = Review(comment, rating, 0, 0, msg.sender, storeAddress, true);\n    }\n\n    function getReviewsForStore(address storeAddress) public view returns (Review[] memory) {\n        Review[] memory storeReviews = new Review[](reviewCounter);\n        uint index = 0;\n        for (uint i = 1; i <= reviewCounter; i++) {\n            if (reviews[i].store == storeAddress) {\n                storeReviews[index] = reviews[i];\n                index++;\n            }\n        }\n        Review[] memory result = new Review[](index);\n        for (uint j = 0; j < index; j++) {\n            result[j] = storeReviews[j];\n        }\n        return result;\n    }\n\n    function getApprovedStores() public view returns (StoreInfo[] memory) {\n        StoreInfo[] memory approvedStores = new StoreInfo[](storeCounter);\n        uint index = 0;\n        for (uint i = 0; i < storeAddresses.length; i++) {\n            address storeAddress = storeAddresses[i];\n            StoreInfo memory store = stores[storeAddress];\n            if (store.approved) {\n                approvedStores[index] = store;\n                index++;\n            }\n        }\n        StoreInfo[] memory result = new StoreInfo[](index);\n        for (uint j = 0; j < index; j++) {\n            result[j] = approvedStores[j];\n        }\n        return result;\n    }\n\n    function getAllUsers() public view returns (UserInfo[] memory) {\n        UserInfo[] memory allUsers = new UserInfo[](userCounter);\n        for (uint i = 0; i < userCounter; i++) {\n            allUsers[i] = users[userAddresses[i]];\n        }\n        return allUsers;\n    }\n}\n",
  "sourcePath": "C:\\Users\\zover\\reactProjects\\ethereum-store-dapp\\solidity-contracts\\contracts\\Store.sol",
  "compiler": {
    "name": "solc",
    "version": "0.5.16+commit.9c3226ce.Emscripten.clang"
  },
  "schemaVersion": "3.4.16",
  "updatedAt": "2024-03-04T18:59:47.653Z",
  "networkType": "ethereum",
  "devdoc": {
    "methods": {}
  },
  "userdoc": {
    "methods": {}
  }
}