{
  "contractName": "FileStorage",
  "abi": [
    {
      "anonymous": false,
      "inputs": [
        {
          "indexed": true,
          "internalType": "bytes32",
          "name": "fileHash",
          "type": "bytes32"
        },
        {
          "indexed": false,
          "internalType": "uint256",
          "name": "timestamp",
          "type": "uint256"
        },
        {
          "indexed": false,
          "internalType": "string",
          "name": "uploader",
          "type": "string"
        },
        {
          "indexed": false,
          "internalType": "string",
          "name": "fileName",
          "type": "string"
        }
      ],
      "name": "FileUploaded",
      "type": "event"
    },
    {
      "constant": true,
      "inputs": [
        {
          "internalType": "bytes32",
          "name": "",
          "type": "bytes32"
        }
      ],
      "name": "fileInfos",
      "outputs": [
        {
          "internalType": "uint256",
          "name": "timestamp",
          "type": "uint256"
        },
        {
          "internalType": "string",
          "name": "uploader",
          "type": "string"
        },
        {
          "internalType": "string",
          "name": "fileName",
          "type": "string"
        },
        {
          "internalType": "bytes32",
          "name": "fileHash",
          "type": "bytes32"
        }
      ],
      "payable": false,
      "stateMutability": "view",
      "type": "function"
    },
    {
      "constant": false,
      "inputs": [
        {
          "internalType": "bytes",
          "name": "file",
          "type": "bytes"
        },
        {
          "internalType": "string",
          "name": "userName",
          "type": "string"
        },
        {
          "internalType": "string",
          "name": "fileName",
          "type": "string"
        }
      ],
      "name": "uploadFile",
      "outputs": [
        {
          "internalType": "bytes32",
          "name": "",
          "type": "bytes32"
        }
      ],
      "payable": false,
      "stateMutability": "nonpayable",
      "type": "function"
    },
    {
      "constant": true,
      "inputs": [
        {
          "internalType": "bytes32",
          "name": "fileHash",
          "type": "bytes32"
        }
      ],
      "name": "getFileInfoByHash",
      "outputs": [
        {
          "internalType": "uint256",
          "name": "",
          "type": "uint256"
        },
        {
          "internalType": "string",
          "name": "",
          "type": "string"
        },
        {
          "internalType": "string",
          "name": "",
          "type": "string"
        },
        {
          "internalType": "bytes32",
          "name": "",
          "type": "bytes32"
        }
      ],
      "payable": false,
      "stateMutability": "view",
      "type": "function"
    },
    {
      "constant": true,
      "inputs": [
        {
          "internalType": "bytes",
          "name": "file",
          "type": "bytes"
        }
      ],
      "name": "getFileHash",
      "outputs": [
        {
          "internalType": "bytes32",
          "name": "",
          "type": "bytes32"
        }
      ],
      "payable": false,
      "stateMutability": "pure",
      "type": "function"
    }
  ],
  "bytecode": "0x608060405234801561001057600080fd5b50610c45806100206000396000f3fe608060405234801561001057600080fd5b506004361061004c5760003560e01c80631dfe65b1146100515780631ea71c041461024e578063d961e0d81461036f578063e592f8e314610490575b600080fd5b6102386004803603606081101561006757600080fd5b810190808035906020019064010000000081111561008457600080fd5b82018360208201111561009657600080fd5b803590602001918460018302840111640100000000831117156100b857600080fd5b91908080601f016020809104026020016040519081016040528093929190818152602001838380828437600081840152601f19601f8201169050808301925050505050505091929192908035906020019064010000000081111561011b57600080fd5b82018360208201111561012d57600080fd5b8035906020019184600183028401116401000000008311171561014f57600080fd5b91908080601f016020809104026020016040519081016040528093929190818152602001838380828437600081840152601f19601f820116905080830192505050505050509192919290803590602001906401000000008111156101b257600080fd5b8201836020820111156101c457600080fd5b803590602001918460018302840111640100000000831117156101e657600080fd5b91908080601f016020809104026020016040519081016040528093929190818152602001838380828437600081840152601f19601f82011690508083019250505050505050919291929050505061055f565b6040518082815260200191505060405180910390f35b61027a6004803603602081101561026457600080fd5b81019080803590602001909291905050506107a4565b604051808581526020018060200180602001848152602001838103835286818151815260200191508051906020019080838360005b838110156102ca5780820151818401526020810190506102af565b50505050905090810190601f1680156102f75780820380516001836020036101000a031916815260200191505b50838103825285818151815260200191508051906020019080838360005b83811015610330578082015181840152602081019050610315565b50505050905090810190601f16801561035d5780820380516001836020036101000a031916815260200191505b50965050505050505060405180910390f35b61039b6004803603602081101561038557600080fd5b81019080803590602001909291905050506109cf565b604051808581526020018060200180602001848152602001838103835286818151815260200191508051906020019080838360005b838110156103eb5780820151818401526020810190506103d0565b50505050905090810190601f1680156104185780820380516001836020036101000a031916815260200191505b50838103825285818151815260200191508051906020019080838360005b83811015610451578082015181840152602081019050610436565b50505050905090810190601f16801561047e5780820380516001836020036101000a031916815260200191505b50965050505050505060405180910390f35b610549600480360360208110156104a657600080fd5b81019080803590602001906401000000008111156104c357600080fd5b8201836020820111156104d557600080fd5b803590602001918460018302840111640100000000831117156104f757600080fd5b91908080601f016020809104026020016040519081016040528093929190818152602001838380828437600081840152601f19601f820116905080830192505050505050509192919290505050610b2f565b6040518082815260200191505060405180910390f35b60008084805190602001209050600080600083815260200190815260200160002060000154146105f7576040517f08c379a00000000000000000000000000000000000000000000000000000000081526004018080602001828103825260138152602001807f46696c6520616c7265616479206578697374730000000000000000000000000081525060200191505060405180910390fd5b6105ff610b40565b60405180608001604052804281526020018681526020018581526020018381525090508060008084815260200190815260200160002060008201518160000155602082015181600101908051906020019061065b929190610b6b565b506040820151816002019080519060200190610678929190610b6b565b5060608201518160030155905050817f516e17b31966d3754114b89f61a0d744ad9b06b157c8b332bea0adce427fe04f428787604051808481526020018060200180602001838103835285818151815260200191508051906020019080838360005b838110156106f55780820151818401526020810190506106da565b50505050905090810190601f1680156107225780820380516001836020036101000a031916815260200191505b50838103825284818151815260200191508051906020019080838360005b8381101561075b578082015181840152602081019050610740565b50505050905090810190601f1680156107885780820380516001836020036101000a031916815260200191505b509550505050505060405180910390a281925050509392505050565b600060608060006107b3610b40565b60008087815260200190815260200160002060405180608001604052908160008201548152602001600182018054600181600116156101000203166002900480601f0160208091040260200160405190810160405280929190818152602001828054600181600116156101000203166002900480156108735780601f1061084857610100808354040283529160200191610873565b820191906000526020600020905b81548152906001019060200180831161085657829003601f168201915b50505050508152602001600282018054600181600116156101000203166002900480601f0160208091040260200160405190810160405280929190818152602001828054600181600116156101000203166002900480156109155780601f106108ea57610100808354040283529160200191610915565b820191906000526020600020905b8154815290600101906020018083116108f857829003601f168201915b5050505050815260200160038201548152505090506000816000015114156109a5576040517f08c379a000000000000000000000000000000000000000000000000000000000815260040180806020018281038252600e8152602001807f46696c65206e6f7420666f756e6400000000000000000000000000000000000081525060200191505060405180910390fd5b80600001518160200151826040015183606001518292508191509450945094509450509193509193565b6000602052806000526040600020600091509050806000015490806001018054600181600116156101000203166002900480601f016020809104026020016040519081016040528092919081815260200182805460018160011615610100020316600290048015610a815780601f10610a5657610100808354040283529160200191610a81565b820191906000526020600020905b815481529060010190602001808311610a6457829003601f168201915b505050505090806002018054600181600116156101000203166002900480601f016020809104026020016040519081016040528092919081815260200182805460018160011615610100020316600290048015610b1f5780601f10610af457610100808354040283529160200191610b1f565b820191906000526020600020905b815481529060010190602001808311610b0257829003601f168201915b5050505050908060030154905084565b600081805190602001209050919050565b6040518060800160405280600081526020016060815260200160608152602001600080191681525090565b828054600181600116156101000203166002900490600052602060002090601f016020900481019282601f10610bac57805160ff1916838001178555610bda565b82800160010185558215610bda579182015b82811115610bd9578251825591602001919060010190610bbe565b5b509050610be79190610beb565b5090565b610c0d91905b80821115610c09576000816000905550600101610bf1565b5090565b9056fea265627a7a723158209a72455da01ef011257ff3349e55a3e7ce273aca549f8081c7db924d4bc8dadd64736f6c63430005100032",
  "source": "// SPDX-License-Identifier: MIT\npragma solidity >=0.4.22 <0.9.0;\n\ncontract FileStorage {\n    struct FileInfo {\n        uint256 timestamp;\n        string uploader;\n        string fileName;\n        bytes32 fileHash;\n    }\n\n    mapping(bytes32 => FileInfo) public fileInfos;\n\n    event FileUploaded(bytes32 indexed fileHash, uint256 timestamp, string uploader, string fileName);\n\n    function uploadFile(bytes memory file, string memory userName, string memory fileName) public returns (bytes32) {\n        bytes32 fileHash = keccak256(file);\n        require(fileInfos[fileHash].timestamp == 0, \"File already exists\");\n\n        FileInfo memory newFileInfo = FileInfo(block.timestamp, userName, fileName, fileHash);\n        fileInfos[fileHash] = newFileInfo;\n\n        emit FileUploaded(fileHash, block.timestamp, userName, fileName);\n\n        return fileHash;\n    }\n\n    function getFileInfoByHash(bytes32 fileHash) public view returns (uint256, string memory, string memory, bytes32) {\n        FileInfo memory info = fileInfos[fileHash];\n        require(info.timestamp != 0, \"File not found\");\n\n        return (info.timestamp, info.uploader, info.fileName, info.fileHash);\n    }\n\n    function getFileHash(bytes memory file) public pure returns (bytes32) {\n        return keccak256(file);\n    }\n}\n",
  "sourcePath": "/Users/zove/WebstormProjects/ethereum-react-app/src/solidity-contracts/contracts/FileStorage.sol",
  "compiler": {
    "name": "solc",
    "version": "0.5.16+commit.9c3226ce.Emscripten.clang"
  },
  "schemaVersion": "3.4.16",
  "updatedAt": "2024-02-10T05:41:28.873Z",
  "networkType": "ethereum",
  "devdoc": {
    "methods": {}
  },
  "userdoc": {
    "methods": {}
  }
}