{
  "contractName": "Store",
  "abi": [
    {
      "inputs": [],
      "payable": false,
      "stateMutability": "nonpayable",
      "type": "constructor"
    },
    {
      "constant": true,
      "inputs": [],
      "name": "reviewCounter",
      "outputs": [
        {
          "internalType": "uint256",
          "name": "",
          "type": "uint256"
        }
      ],
      "payable": false,
      "stateMutability": "view",
      "type": "function"
    },
    {
      "constant": true,
      "inputs": [],
      "name": "storeCounter",
      "outputs": [
        {
          "internalType": "uint256",
          "name": "",
          "type": "uint256"
        }
      ],
      "payable": false,
      "stateMutability": "view",
      "type": "function"
    },
    {
      "constant": true,
      "inputs": [],
      "name": "userCounter",
      "outputs": [
        {
          "internalType": "uint256",
          "name": "",
          "type": "uint256"
        }
      ],
      "payable": false,
      "stateMutability": "view",
      "type": "function"
    },
    {
      "constant": false,
      "inputs": [
        {
          "internalType": "string",
          "name": "name",
          "type": "string"
        },
        {
          "internalType": "string",
          "name": "password",
          "type": "string"
        },
        {
          "internalType": "address",
          "name": "userAddress",
          "type": "address"
        }
      ],
      "name": "registerUser",
      "outputs": [],
      "payable": false,
      "stateMutability": "nonpayable",
      "type": "function"
    },
    {
      "constant": false,
      "inputs": [
        {
          "internalType": "string",
          "name": "name",
          "type": "string"
        },
        {
          "internalType": "address",
          "name": "owner",
          "type": "address"
        }
      ],
      "name": "registerStore",
      "outputs": [],
      "payable": false,
      "stateMutability": "nonpayable",
      "type": "function"
    },
    {
      "constant": false,
      "inputs": [
        {
          "internalType": "address",
          "name": "storeAddress",
          "type": "address"
        }
      ],
      "name": "approveStore",
      "outputs": [],
      "payable": false,
      "stateMutability": "nonpayable",
      "type": "function"
    },
    {
      "constant": false,
      "inputs": [
        {
          "internalType": "string",
          "name": "comment",
          "type": "string"
        },
        {
          "internalType": "uint256",
          "name": "rating",
          "type": "uint256"
        },
        {
          "internalType": "address",
          "name": "storeAddress",
          "type": "address"
        }
      ],
      "name": "registerReview",
      "outputs": [],
      "payable": false,
      "stateMutability": "nonpayable",
      "type": "function"
    },
    {
      "constant": true,
      "inputs": [
        {
          "internalType": "address",
          "name": "storeAddress",
          "type": "address"
        }
      ],
      "name": "getReviewsForStore",
      "outputs": [
        {
          "components": [
            {
              "internalType": "string",
              "name": "comment",
              "type": "string"
            },
            {
              "internalType": "uint256",
              "name": "rating",
              "type": "uint256"
            },
            {
              "internalType": "uint256",
              "name": "likes",
              "type": "uint256"
            },
            {
              "internalType": "uint256",
              "name": "dislikes",
              "type": "uint256"
            },
            {
              "internalType": "address",
              "name": "author",
              "type": "address"
            },
            {
              "internalType": "address",
              "name": "store",
              "type": "address"
            },
            {
              "internalType": "bool",
              "name": "approved",
              "type": "bool"
            }
          ],
          "internalType": "struct Store.Review[]",
          "name": "",
          "type": "tuple[]"
        }
      ],
      "payable": false,
      "stateMutability": "view",
      "type": "function"
    },
    {
      "constant": true,
      "inputs": [],
      "name": "getApprovedStores",
      "outputs": [
        {
          "components": [
            {
              "internalType": "string",
              "name": "name",
              "type": "string"
            },
            {
              "internalType": "address",
              "name": "owner",
              "type": "address"
            },
            {
              "internalType": "bool",
              "name": "approved",
              "type": "bool"
            }
          ],
          "internalType": "struct Store.StoreInfo[]",
          "name": "",
          "type": "tuple[]"
        }
      ],
      "payable": false,
      "stateMutability": "view",
      "type": "function"
    },
    {
      "constant": true,
      "inputs": [],
      "name": "getAllUsers",
      "outputs": [
        {
          "components": [
            {
              "internalType": "string",
              "name": "name",
              "type": "string"
            },
            {
              "internalType": "string",
              "name": "password",
              "type": "string"
            },
            {
              "internalType": "bool",
              "name": "isAdmin",
              "type": "bool"
            },
            {
              "internalType": "bool",
              "name": "isSeller",
              "type": "bool"
            },
            {
              "internalType": "bool",
              "name": "isBuyer",
              "type": "bool"
            }
          ],
          "internalType": "struct Store.UserInfo[]",
          "name": "",
          "type": "tuple[]"
        }
      ],
      "payable": false,
      "stateMutability": "view",
      "type": "function"
    },
    {
      "constant": true,
      "inputs": [
        {
          "internalType": "string",
          "name": "username",
          "type": "string"
        },
        {
          "internalType": "string",
          "name": "password",
          "type": "string"
        }
      ],
      "name": "authUser",
      "outputs": [
        {
          "internalType": "bool",
          "name": "",
          "type": "bool"
        }
      ],
      "payable": false,
      "stateMutability": "view",
      "type": "function"
    },
    {
      "constant": true,
      "inputs": [
        {
          "internalType": "string",
          "name": "a",
          "type": "string"
        },
        {
          "internalType": "string",
          "name": "b",
          "type": "string"
        }
      ],
      "name": "compareStrings",
      "outputs": [
        {
          "internalType": "bool",
          "name": "",
          "type": "bool"
        }
      ],
      "payable": false,
      "stateMutability": "pure",
      "type": "function"
    },
    {
      "constant": true,
      "inputs": [
        {
          "internalType": "string",
          "name": "username",
          "type": "string"
        },
        {
          "internalType": "string",
          "name": "password",
          "type": "string"
        }
      ],
      "name": "isAdmin",
      "outputs": [
        {
          "internalType": "bool",
          "name": "",
          "type": "bool"
        }
      ],
      "payable": false,
      "stateMutability": "view",
      "type": "function"
    },
    {
      "constant": false,
      "inputs": [
        {
          "internalType": "address",
          "name": "storeAddress",
          "type": "address"
        }
      ],
      "name": "removeStore",
      "outputs": [],
      "payable": false,
      "stateMutability": "nonpayable",
      "type": "function"
    }
  ],
  "bytecode": "0x60806040526000600255600060045560006007553480156200002057600080fd5b506040518060a001604052806040518060400160405280600581526020017f41646d696e00000000000000000000000000000000000000000000000000000081525081526020016040518060400160405280600581526020017f41646d696e0000000000000000000000000000000000000000000000000000008152508152602001600115158152602001600015158152602001600015158152506000803373ffffffffffffffffffffffffffffffffffffffff1673ffffffffffffffffffffffffffffffffffffffff168152602001908152602001600020600082015181600001908051906020019062000117929190620003c1565b50602082015181600101908051906020019062000136929190620003c1565b5060408201518160020160006101000a81548160ff02191690831515021790555060608201518160020160016101000a81548160ff02191690831515021790555060808201518160020160026101000a81548160ff02191690831515021790555090505060013390806001815401808255809150509060018203906000526020600020016000909192909190916101000a81548173ffffffffffffffffffffffffffffffffffffffff021916908373ffffffffffffffffffffffffffffffffffffffff1602179055505060026000815480929190600101919050555060405180606001604052806040518060400160405280600d81526020017f44656661756c742053746f72650000000000000000000000000000000000000081525081526020013373ffffffffffffffffffffffffffffffffffffffff16815260200160011515815250600560003373ffffffffffffffffffffffffffffffffffffffff1673ffffffffffffffffffffffffffffffffffffffff1681526020019081526020016000206000820151816000019080519060200190620002d8929190620003c1565b5060208201518160010160006101000a81548173ffffffffffffffffffffffffffffffffffffffff021916908373ffffffffffffffffffffffffffffffffffffffff16021790555060408201518160010160146101000a81548160ff02191690831515021790555090505060063390806001815401808255809150509060018203906000526020600020016000909192909190916101000a81548173ffffffffffffffffffffffffffffffffffffffff021916908373ffffffffffffffffffffffffffffffffffffffff1602179055505060076000815480929190600101919050555062000470565b828054600181600116156101000203166002900490600052602060002090601f016020900481019282601f106200040457805160ff191683800117855562000435565b8280016001018555821562000435579182015b828111156200043457825182559160200191906001019062000417565b5b50905062000444919062000448565b5090565b6200046d91905b80821115620004695760008160009055506001016200044f565b5090565b90565b6126c280620004806000396000f3fe608060405234801561001057600080fd5b50600436106100ea5760003560e01c8063ab45500a1161008c578063bed34bba11610066578063bed34bba14610247578063e168b3a814610277578063e2842d7914610295578063f0c37a59146102b3576100ea565b8063ab45500a146101ef578063b9ca868d1461020b578063bbcbab8114610229576100ea565b80636d1e9323116100c85780636d1e93231461016b57806370d30ba21461019b57806388557b07146101b75780638dbe1a17146101d3576100ea565b806331157c15146100ef578063479e8f8e1461010b57806351283cd91461013b575b600080fd5b61010960048036036101049190810190611cb4565b6102d1565b005b61012560048036036101209190810190611d31565b6103bd565b60405161013291906123b9565b60405180910390f35b61015560048036036101509190810190611d31565b6105f1565b60405161016291906123b9565b60405180910390f35b61018560048036036101809190810190611cb4565b61081a565b6040516101929190612353565b60405180910390f35b6101b560048036036101b09190810190611e1c565b610b3f565b005b6101d160048036036101cc9190810190611d9d565b610cbb565b005b6101ed60048036036101e89190810190611cb4565b610f82565b005b61020960048036036102049190810190611cdd565b6112c7565b005b61021361143d565b6040516102209190612454565b60405180910390f35b610231611443565b60405161023e9190612375565b60405180910390f35b610261600480360361025c9190810190611d31565b61170a565b60405161026e91906123b9565b60405180910390f35b61027f611763565b60405161028c9190612454565b60405180910390f35b61029d611769565b6040516102aa9190612397565b60405180910390f35b6102bb6119fc565b6040516102c89190612454565b60405180910390f35b6000803373ffffffffffffffffffffffffffffffffffffffff1673ffffffffffffffffffffffffffffffffffffffff16815260200190815260200160002060020160009054906101000a900460ff1661035f576040517f08c379a000000000000000000000000000000000000000000000000000000000815260040161035690612434565b60405180910390fd5b6001600560008373ffffffffffffffffffffffffffffffffffffffff1673ffffffffffffffffffffffffffffffffffffffff16815260200190815260200160002060010160146101000a81548160ff02191690831515021790555050565b60006103c7611a02565b6000803373ffffffffffffffffffffffffffffffffffffffff1673ffffffffffffffffffffffffffffffffffffffff1681526020019081526020016000206040518060a0016040529081600082018054600181600116156101000203166002900480601f0160208091040260200160405190810160405280929190818152602001828054600181600116156101000203166002900480156104a95780601f1061047e576101008083540402835291602001916104a9565b820191906000526020600020905b81548152906001019060200180831161048c57829003601f168201915b50505050508152602001600182018054600181600116156101000203166002900480601f01602080910402602001604051908101604052809291908181526020018280546001816001161561010002031660029004801561054b5780601f106105205761010080835404028352916020019161054b565b820191906000526020600020905b81548152906001019060200180831161052e57829003601f168201915b505050505081526020016002820160009054906101000a900460ff161515151581526020016002820160019054906101000a900460ff161515151581526020016002820160029054906101000a900460ff16151515158152505090506105b581600001518561170a565b80156105cb57506105ca81602001518461170a565b5b156105e5578060400151156105e45760019150506105eb565b5b60009150505b92915050565b60006105fb611a02565b6000803373ffffffffffffffffffffffffffffffffffffffff1673ffffffffffffffffffffffffffffffffffffffff1681526020019081526020016000206040518060a0016040529081600082018054600181600116156101000203166002900480601f0160208091040260200160405190810160405280929190818152602001828054600181600116156101000203166002900480156106dd5780601f106106b2576101008083540402835291602001916106dd565b820191906000526020600020905b8154815290600101906020018083116106c057829003601f168201915b50505050508152602001600182018054600181600116156101000203166002900480601f01602080910402602001604051908101604052809291908181526020018280546001816001161561010002031660029004801561077f5780601f106107545761010080835404028352916020019161077f565b820191906000526020600020905b81548152906001019060200180831161076257829003601f168201915b505050505081526020016002820160009054906101000a900460ff161515151581526020016002820160019054906101000a900460ff161515151581526020016002820160029054906101000a900460ff16151515158152505090506107e981600001518561170a565b80156107ff57506107fe81602001518461170a565b5b1561080e576001915050610814565b60009150505b92915050565b60608060045460405190808252806020026020018201604052801561085957816020015b610846611a37565b81526020019060019003908161083e5790505b50905060008090506000600190505b6004548111610aad578473ffffffffffffffffffffffffffffffffffffffff166003600083815260200190815260200160002060050160009054906101000a900473ffffffffffffffffffffffffffffffffffffffff1673ffffffffffffffffffffffffffffffffffffffff161415610aa057600360008281526020019081526020016000206040518060e0016040529081600082018054600181600116156101000203166002900480601f0160208091040260200160405190810160405280929190818152602001828054600181600116156101000203166002900480156109925780601f1061096757610100808354040283529160200191610992565b820191906000526020600020905b81548152906001019060200180831161097557829003601f168201915b505050505081526020016001820154815260200160028201548152602001600382015481526020016004820160009054906101000a900473ffffffffffffffffffffffffffffffffffffffff1673ffffffffffffffffffffffffffffffffffffffff1673ffffffffffffffffffffffffffffffffffffffff1681526020016005820160009054906101000a900473ffffffffffffffffffffffffffffffffffffffff1673ffffffffffffffffffffffffffffffffffffffff1673ffffffffffffffffffffffffffffffffffffffff1681526020016005820160149054906101000a900460ff161515151581525050838381518110610a8c57fe5b602002602001018190525081806001019250505b8080600101915050610868565b50606081604051908082528060200260200182016040528015610aea57816020015b610ad7611a37565b815260200190600190039081610acf5790505b50905060008090505b82811015610b3357838181518110610b0757fe5b6020026020010151828281518110610b1b57fe5b60200260200101819052508080600101915050610af3565b50809350505050919050565b6004600081548092919060010191905055506040518060e0016040528084815260200183815260200160008152602001600081526020013373ffffffffffffffffffffffffffffffffffffffff1681526020018273ffffffffffffffffffffffffffffffffffffffff168152602001600115158152506003600060045481526020019081526020016000206000820151816000019080519060200190610be6929190611aa2565b5060208201518160010155604082015181600201556060820151816003015560808201518160040160006101000a81548173ffffffffffffffffffffffffffffffffffffffff021916908373ffffffffffffffffffffffffffffffffffffffff16021790555060a08201518160050160006101000a81548173ffffffffffffffffffffffffffffffffffffffff021916908373ffffffffffffffffffffffffffffffffffffffff16021790555060c08201518160050160146101000a81548160ff021916908315150217905550905050505050565b6000808273ffffffffffffffffffffffffffffffffffffffff1673ffffffffffffffffffffffffffffffffffffffff16815260200190815260200160002060020160009054906101000a900460ff16158015610d6357506000808273ffffffffffffffffffffffffffffffffffffffff1673ffffffffffffffffffffffffffffffffffffffff16815260200190815260200160002060020160019054906101000a900460ff16155b8015610dbb57506000808273ffffffffffffffffffffffffffffffffffffffff1673ffffffffffffffffffffffffffffffffffffffff16815260200190815260200160002060020160029054906101000a900460ff16155b610dfa576040517f08c379a0000000000000000000000000000000000000000000000000000000008152600401610df190612414565b60405180910390fd5b6040518060a00160405280848152602001838152602001600015158152602001600015158152602001600015158152506000808373ffffffffffffffffffffffffffffffffffffffff1673ffffffffffffffffffffffffffffffffffffffff1681526020019081526020016000206000820151816000019080519060200190610e84929190611aa2565b506020820151816001019080519060200190610ea1929190611aa2565b5060408201518160020160006101000a81548160ff02191690831515021790555060608201518160020160016101000a81548160ff02191690831515021790555060808201518160020160026101000a81548160ff02191690831515021790555090505060018190806001815401808255809150509060018203906000526020600020016000909192909190916101000a81548173ffffffffffffffffffffffffffffffffffffffff021916908373ffffffffffffffffffffffffffffffffffffffff16021790555050600260008154809291906001019190505550505050565b6000803373ffffffffffffffffffffffffffffffffffffffff1673ffffffffffffffffffffffffffffffffffffffff16815260200190815260200160002060020160009054906101000a900460ff16611010576040517f08c379a0000000000000000000000000000000000000000000000000000000008152600401611007906123f4565b60405180910390fd5b600560008273ffffffffffffffffffffffffffffffffffffffff1673ffffffffffffffffffffffffffffffffffffffff16815260200190815260200160002060010160149054906101000a900460ff1661109f576040517f08c379a0000000000000000000000000000000000000000000000000000000008152600401611096906123d4565b60405180910390fd5b600560008273ffffffffffffffffffffffffffffffffffffffff1673ffffffffffffffffffffffffffffffffffffffff168152602001908152602001600020600080820160006110ef9190611b22565b6001820160006101000a81549073ffffffffffffffffffffffffffffffffffffffff02191690556001820160146101000a81549060ff0219169055505060008090505b6006805490508110156112b0578173ffffffffffffffffffffffffffffffffffffffff166006828154811061116357fe5b9060005260206000200160009054906101000a900473ffffffffffffffffffffffffffffffffffffffff1673ffffffffffffffffffffffffffffffffffffffff1614156112a35760008190505b60016006805490500381101561125d57600660018201815481106111d057fe5b9060005260206000200160009054906101000a900473ffffffffffffffffffffffffffffffffffffffff166006828154811061120857fe5b9060005260206000200160006101000a81548173ffffffffffffffffffffffffffffffffffffffff021916908373ffffffffffffffffffffffffffffffffffffffff16021790555080806001019150506111b0565b50600680548061126957fe5b6001900381819060005260206000200160006101000a81549073ffffffffffffffffffffffffffffffffffffffff021916905590556112b0565b8080600101915050611132565b506007600081548092919060019003919050555050565b60405180606001604052808381526020018273ffffffffffffffffffffffffffffffffffffffff16815260200160001515815250600560008373ffffffffffffffffffffffffffffffffffffffff1673ffffffffffffffffffffffffffffffffffffffff1681526020019081526020016000206000820151816000019080519060200190611356929190611aa2565b5060208201518160010160006101000a81548173ffffffffffffffffffffffffffffffffffffffff021916908373ffffffffffffffffffffffffffffffffffffffff16021790555060408201518160010160146101000a81548160ff02191690831515021790555090505060068190806001815401808255809150509060018203906000526020600020016000909192909190916101000a81548173ffffffffffffffffffffffffffffffffffffffff021916908373ffffffffffffffffffffffffffffffffffffffff160217905550506007600081548092919060010191905055505050565b60075481565b60608060075460405190808252806020026020018201604052801561148257816020015b61146f611b6a565b8152602001906001900390816114675790505b509050600080905060008090505b60068054905081101561167a576000600682815481106114ac57fe5b9060005260206000200160009054906101000a900473ffffffffffffffffffffffffffffffffffffffff1690506114e1611ba3565b600560008373ffffffffffffffffffffffffffffffffffffffff1673ffffffffffffffffffffffffffffffffffffffff168152602001908152602001600020604051806060016040529081600082018054600181600116156101000203166002900480601f0160208091040260200160405190810160405280929190818152602001828054600181600116156101000203166002900480156115c45780601f10611599576101008083540402835291602001916115c4565b820191906000526020600020905b8154815290600101906020018083116115a757829003601f168201915b505050505081526020016001820160009054906101000a900473ffffffffffffffffffffffffffffffffffffffff1673ffffffffffffffffffffffffffffffffffffffff1673ffffffffffffffffffffffffffffffffffffffff1681526020016001820160149054906101000a900460ff161515151581525050905080604001511561166b578085858151811061165757fe5b602002602001018190525083806001019450505b50508080600101915050611490565b506060816040519080825280602002602001820160405280156116b757816020015b6116a4611b6a565b81526020019060019003908161169c5790505b50905060008090505b82811015611700578381815181106116d457fe5b60200260200101518282815181106116e857fe5b602002602001018190525080806001019150506116c0565b5080935050505090565b60008160405160200161171d919061233c565b6040516020818303038152906040528051906020012083604051602001611744919061233c565b6040516020818303038152906040528051906020012014905092915050565b60045481565b6060806002546040519080825280602002602001820160405280156117a857816020015b611795611bdc565b81526020019060019003908161178d5790505b50905060008090505b6002548110156119f457600080600183815481106117cb57fe5b9060005260206000200160009054906101000a900473ffffffffffffffffffffffffffffffffffffffff1673ffffffffffffffffffffffffffffffffffffffff1673ffffffffffffffffffffffffffffffffffffffff1681526020019081526020016000206040518060a0016040529081600082018054600181600116156101000203166002900480601f0160208091040260200160405190810160405280929190818152602001828054600181600116156101000203166002900480156118d45780601f106118a9576101008083540402835291602001916118d4565b820191906000526020600020905b8154815290600101906020018083116118b757829003601f168201915b50505050508152602001600182018054600181600116156101000203166002900480601f0160208091040260200160405190810160405280929190818152602001828054600181600116156101000203166002900480156119765780601f1061194b57610100808354040283529160200191611976565b820191906000526020600020905b81548152906001019060200180831161195957829003601f168201915b505050505081526020016002820160009054906101000a900460ff161515151581526020016002820160019054906101000a900460ff161515151581526020016002820160029054906101000a900460ff1615151515815250508282815181106119dc57fe5b602002602001018190525080806001019150506117b1565b508091505090565b60025481565b6040518060a0016040528060608152602001606081526020016000151581526020016000151581526020016000151581525090565b6040518060e0016040528060608152602001600081526020016000815260200160008152602001600073ffffffffffffffffffffffffffffffffffffffff168152602001600073ffffffffffffffffffffffffffffffffffffffff1681526020016000151581525090565b828054600181600116156101000203166002900490600052602060002090601f016020900481019282601f10611ae357805160ff1916838001178555611b11565b82800160010185558215611b11579182015b82811115611b10578251825591602001919060010190611af5565b5b509050611b1e9190611c11565b5090565b50805460018160011615610100020316600290046000825580601f10611b485750611b67565b601f016020900490600052602060002090810190611b669190611c11565b5b50565b604051806060016040528060608152602001600073ffffffffffffffffffffffffffffffffffffffff1681526020016000151581525090565b604051806060016040528060608152602001600073ffffffffffffffffffffffffffffffffffffffff1681526020016000151581525090565b6040518060a0016040528060608152602001606081526020016000151581526020016000151581526020016000151581525090565b611c3391905b80821115611c2f576000816000905550600101611c17565b5090565b90565b600081359050611c4581612651565b92915050565b600082601f830112611c5c57600080fd5b8135611c6f611c6a8261249c565b61246f565b91508082526020830160208301858383011115611c8b57600080fd5b611c968382846125fe565b50505092915050565b600081359050611cae81612668565b92915050565b600060208284031215611cc657600080fd5b6000611cd484828501611c36565b91505092915050565b60008060408385031215611cf057600080fd5b600083013567ffffffffffffffff811115611d0a57600080fd5b611d1685828601611c4b565b9250506020611d2785828601611c36565b9150509250929050565b60008060408385031215611d4457600080fd5b600083013567ffffffffffffffff811115611d5e57600080fd5b611d6a85828601611c4b565b925050602083013567ffffffffffffffff811115611d8757600080fd5b611d9385828601611c4b565b9150509250929050565b600080600060608486031215611db257600080fd5b600084013567ffffffffffffffff811115611dcc57600080fd5b611dd886828701611c4b565b935050602084013567ffffffffffffffff811115611df557600080fd5b611e0186828701611c4b565b9250506040611e1286828701611c36565b9150509250925092565b600080600060608486031215611e3157600080fd5b600084013567ffffffffffffffff811115611e4b57600080fd5b611e5786828701611c4b565b9350506020611e6886828701611c9f565b9250506040611e7986828701611c36565b9150509250925092565b6000611e8f83836121b5565b905092915050565b6000611ea38383612251565b905092915050565b6000611eb783836122a1565b905092915050565b611ec8816125b6565b82525050565b6000611ed9826124f8565b611ee38185612556565b935083602082028501611ef5856124c8565b8060005b85811015611f315784840389528151611f128582611e83565b9450611f1d8361252f565b925060208a01995050600181019050611ef9565b50829750879550505050505092915050565b6000611f4e82612503565b611f588185612567565b935083602082028501611f6a856124d8565b8060005b85811015611fa65784840389528151611f878582611e97565b9450611f928361253c565b925060208a01995050600181019050611f6e565b50829750879550505050505092915050565b6000611fc38261250e565b611fcd8185612578565b935083602082028501611fdf856124e8565b8060005b8581101561201b5784840389528151611ffc8582611eab565b945061200783612549565b925060208a01995050600181019050611fe3565b50829750879550505050505092915050565b612036816125c8565b82525050565b612045816125c8565b82525050565b600061205682612524565b61206081856125ab565b935061207081856020860161260d565b80840191505092915050565b600061208782612519565b6120918185612589565b93506120a181856020860161260d565b6120aa81612640565b840191505092915050565b60006120c260158361259a565b91507f53746f7265206973206e6f7420617070726f76656400000000000000000000006000830152602082019050919050565b6000612102601d8361259a565b91507f4f6e6c792061646d696e732063616e2072656d6f76652073746f7265730000006000830152602082019050919050565b600061214260178361259a565b91507f5573657220616c726561647920726567697374657265640000000000000000006000830152602082019050919050565b6000612182601e8361259a565b91507f4f6e6c792061646d696e732063616e20617070726f76652073746f72657300006000830152602082019050919050565b600060e08301600083015184820360008601526121d2828261207c565b91505060208301516121e7602086018261231e565b5060408301516121fa604086018261231e565b50606083015161220d606086018261231e565b5060808301516122206080860182611ebf565b5060a083015161223360a0860182611ebf565b5060c083015161224660c086018261202d565b508091505092915050565b6000606083016000830151848203600086015261226e828261207c565b91505060208301516122836020860182611ebf565b506040830151612296604086018261202d565b508091505092915050565b600060a08301600083015184820360008601526122be828261207c565b915050602083015184820360208601526122d8828261207c565b91505060408301516122ed604086018261202d565b506060830151612300606086018261202d565b506080830151612313608086018261202d565b508091505092915050565b612327816125f4565b82525050565b612336816125f4565b82525050565b6000612348828461204b565b915081905092915050565b6000602082019050818103600083015261236d8184611ece565b905092915050565b6000602082019050818103600083015261238f8184611f43565b905092915050565b600060208201905081810360008301526123b18184611fb8565b905092915050565b60006020820190506123ce600083018461203c565b92915050565b600060208201905081810360008301526123ed816120b5565b9050919050565b6000602082019050818103600083015261240d816120f5565b9050919050565b6000602082019050818103600083015261242d81612135565b9050919050565b6000602082019050818103600083015261244d81612175565b9050919050565b6000602082019050612469600083018461232d565b92915050565b6000604051905081810181811067ffffffffffffffff8211171561249257600080fd5b8060405250919050565b600067ffffffffffffffff8211156124b357600080fd5b601f19601f8301169050602081019050919050565b6000819050602082019050919050565b6000819050602082019050919050565b6000819050602082019050919050565b600081519050919050565b600081519050919050565b600081519050919050565b600081519050919050565b600081519050919050565b6000602082019050919050565b6000602082019050919050565b6000602082019050919050565b600082825260208201905092915050565b600082825260208201905092915050565b600082825260208201905092915050565b600082825260208201905092915050565b600082825260208201905092915050565b600081905092915050565b60006125c1826125d4565b9050919050565b60008115159050919050565b600073ffffffffffffffffffffffffffffffffffffffff82169050919050565b6000819050919050565b82818337600083830152505050565b60005b8381101561262b578082015181840152602081019050612610565b8381111561263a576000848401525b50505050565b6000601f19601f8301169050919050565b61265a816125b6565b811461266557600080fd5b50565b612671816125f4565b811461267c57600080fd5b5056fea365627a7a723158203c05df46f78c3673a3ea343f83cbbf39ec0ae326f633e6f5ead435ec5212e7776c6578706572696d656e74616cf564736f6c63430005100040",
  "source": "// SPDX-License-Identifier: MIT\r\npragma solidity >=0.4.22 <0.9.0;\r\n\r\npragma experimental ABIEncoderV2;\r\n\r\ncontract Store {\r\n    //  \r\n    struct Review {\r\n        string comment; // \r\n        uint rating; // \r\n        uint likes; // \r\n        uint dislikes; // \r\n        address author; //  \r\n        address store; // ,    \r\n        bool approved; //   \r\n    }\r\n\r\n    //    \r\n    struct StoreInfo {\r\n        string name; //  \r\n        address owner; //  \r\n        bool approved; //   \r\n    }\r\n\r\n    //    \r\n    struct UserInfo {\r\n        string name; //  \r\n        string password; //  \r\n        bool isAdmin; //    \r\n        bool isSeller; //    \r\n        bool isBuyer; //    \r\n    }\r\n\r\n    //     \r\n    mapping(address => UserInfo) private users;\r\n    //   \r\n    address[] private userAddresses;\r\n    //  \r\n    uint public userCounter = 0;\r\n\r\n    //     \r\n    mapping(uint => Review) private reviews;\r\n    //  \r\n    uint public reviewCounter = 0;\r\n\r\n    //     \r\n    mapping(address => StoreInfo) private stores;\r\n    //   \r\n    address[] private storeAddresses;\r\n    //  \r\n    uint public storeCounter = 0;\r\n\r\n    //  \r\n    constructor() public {\r\n        //     .\r\n        users[msg.sender] = UserInfo(\"Admin\", \"Admin\", true, false, false);\r\n        userAddresses.push(msg.sender);\r\n        userCounter++;\r\n\r\n        //    .\r\n        stores[msg.sender] = StoreInfo(\"Default Store\", msg.sender, true);\r\n        storeAddresses.push(msg.sender);\r\n        storeCounter++;\r\n    }\r\n\r\n    //   \r\n    function registerUser(string memory name, string memory password, address userAddress) public {\r\n        require(!users[userAddress].isAdmin && !users[userAddress].isSeller && !users[userAddress].isBuyer, \"User already registered\");\r\n        users[userAddress] = UserInfo(name, password, false, false, false);\r\n        userAddresses.push(userAddress);\r\n        userCounter++;\r\n    }\r\n\r\n    //   \r\n    function registerStore(string memory name, address owner) public {\r\n        stores[owner] = StoreInfo(name, owner, false);\r\n        storeAddresses.push(owner);\r\n        storeCounter++;\r\n    }\r\n\r\n    //   \r\n    function approveStore(address storeAddress) public {\r\n        require(users[msg.sender].isAdmin, \"Only admins can approve stores\");\r\n        stores[storeAddress].approved = true;\r\n    }\r\n\r\n    //   \r\n    function registerReview(string memory comment, uint rating, address storeAddress) public {\r\n        reviewCounter++;\r\n        reviews[reviewCounter] = Review(comment, rating, 0, 0, msg.sender, storeAddress, true);\r\n    }\r\n\r\n    //     \r\n    function getReviewsForStore(address storeAddress) public view returns (Review[] memory) {\r\n        Review[] memory storeReviews = new Review[](reviewCounter);\r\n        uint index = 0;\r\n        for (uint i = 1; i <= reviewCounter; i++) {\r\n            if (reviews[i].store == storeAddress) {\r\n                storeReviews[index] = reviews[i];\r\n                index++;\r\n            }\r\n        }\r\n        Review[] memory result = new Review[](index);\r\n        for (uint j = 0; j < index; j++) {\r\n            result[j] = storeReviews[j];\r\n        }\r\n        return result;\r\n    }\r\n\r\n    //    \r\n    function getApprovedStores() public view returns (StoreInfo[] memory) {\r\n        StoreInfo[] memory approvedStores = new StoreInfo[](storeCounter);\r\n        uint index = 0;\r\n        for (uint i = 0; i < storeAddresses.length; i++) {\r\n            address storeAddress = storeAddresses[i];\r\n            StoreInfo memory store = stores[storeAddress];\r\n            if (store.approved) {\r\n                approvedStores[index] = store;\r\n                index++;\r\n            }\r\n        }\r\n        StoreInfo[] memory result = new StoreInfo[](index);\r\n        for (uint j = 0; j < index; j++) {\r\n            result[j] = approvedStores[j];\r\n        }\r\n        return result;\r\n    }\r\n\r\n    //    \r\n    function getAllUsers() public view returns (UserInfo[] memory) {\r\n        UserInfo[] memory allUsers = new UserInfo[](userCounter);\r\n        for (uint i = 0; i < userCounter; i++) {\r\n            allUsers[i] = users[userAddresses[i]];\r\n        }\r\n        return allUsers;\r\n    }\r\n\r\n   function authUser(string memory username, string memory password) public view returns (bool) {\r\n       UserInfo memory user = users[msg.sender];\r\n       if (compareStrings(user.name, username) && compareStrings(user.password, password)) {\r\n         return true;\r\n       }\r\n       return false;\r\n   }\r\n   \r\n   function compareStrings(string memory a, string memory b) public pure returns (bool) {\r\n     return keccak256(abi.encodePacked(a)) == keccak256(abi.encodePacked(b));\r\n    }\r\n\r\n    //       \r\n    function isAdmin(string memory username, string memory password) public view returns (bool) {\r\n       UserInfo memory user = users[msg.sender];\r\n       if (compareStrings(user.name, username) && compareStrings(user.password, password)) {\r\n        if (user.isAdmin) {\r\n            return true;\r\n        }\r\n        }\r\n        return false;\r\n    }\r\n\r\n    //   \r\n    function removeStore(address storeAddress) public {\r\n        require(users[msg.sender].isAdmin, \"Only admins can remove stores\");\r\n        require(stores[storeAddress].approved, \"Store is not approved\");\r\n\r\n        //    \r\n        delete stores[storeAddress];\r\n\r\n        //      \r\n        for (uint i = 0; i < storeAddresses.length; i++) {\r\n            if (storeAddresses[i] == storeAddress) {\r\n                //    \r\n                for (uint j = i; j < storeAddresses.length-1; j++) {\r\n                    storeAddresses[j] = storeAddresses[j+1];\r\n                }\r\n                //     1    \r\n                storeAddresses.pop();\r\n                break;\r\n            }\r\n        }\r\n\r\n        //   \r\n        storeCounter--;\r\n    }\r\n\r\n}\r\n",
  "sourcePath": "C:\\Users\\zover\\WebstormProjects\\ethereum-store-dapp\\src\\solidity-contracts\\contracts\\Store.sol",
  "compiler": {
    "name": "solc",
    "version": "0.5.16+commit.9c3226ce.Emscripten.clang"
  },
  "schemaVersion": "3.4.16",
  "updatedAt": "2024-03-10T09:34:15.803Z",
  "networkType": "ethereum",
  "devdoc": {
    "methods": {}
  },
  "userdoc": {
    "methods": {}
  }
}