{
  "contractName": "Store",
  "abi": [
    {
      "inputs": [],
      "payable": false,
      "stateMutability": "nonpayable",
      "type": "constructor"
    },
    {
      "constant": true,
      "inputs": [],
      "name": "reviewCounter",
      "outputs": [
        {
          "internalType": "uint256",
          "name": "",
          "type": "uint256"
        }
      ],
      "payable": false,
      "stateMutability": "view",
      "type": "function"
    },
    {
      "constant": true,
      "inputs": [],
      "name": "storeCounter",
      "outputs": [
        {
          "internalType": "uint256",
          "name": "",
          "type": "uint256"
        }
      ],
      "payable": false,
      "stateMutability": "view",
      "type": "function"
    },
    {
      "constant": true,
      "inputs": [],
      "name": "userCounter",
      "outputs": [
        {
          "internalType": "uint256",
          "name": "",
          "type": "uint256"
        }
      ],
      "payable": false,
      "stateMutability": "view",
      "type": "function"
    },
    {
      "constant": false,
      "inputs": [
        {
          "internalType": "string",
          "name": "name",
          "type": "string"
        },
        {
          "internalType": "string",
          "name": "password",
          "type": "string"
        },
        {
          "internalType": "address",
          "name": "userAddress",
          "type": "address"
        }
      ],
      "name": "registerUser",
      "outputs": [],
      "payable": false,
      "stateMutability": "nonpayable",
      "type": "function"
    },
    {
      "constant": false,
      "inputs": [
        {
          "internalType": "string",
          "name": "name",
          "type": "string"
        },
        {
          "internalType": "address",
          "name": "owner",
          "type": "address"
        }
      ],
      "name": "registerStore",
      "outputs": [],
      "payable": false,
      "stateMutability": "nonpayable",
      "type": "function"
    },
    {
      "constant": false,
      "inputs": [
        {
          "internalType": "address",
          "name": "storeAddress",
          "type": "address"
        }
      ],
      "name": "approveStore",
      "outputs": [],
      "payable": false,
      "stateMutability": "nonpayable",
      "type": "function"
    },
    {
      "constant": false,
      "inputs": [
        {
          "internalType": "string",
          "name": "comment",
          "type": "string"
        },
        {
          "internalType": "uint256",
          "name": "rating",
          "type": "uint256"
        },
        {
          "internalType": "address",
          "name": "storeAddress",
          "type": "address"
        }
      ],
      "name": "registerReview",
      "outputs": [],
      "payable": false,
      "stateMutability": "nonpayable",
      "type": "function"
    },
    {
      "constant": true,
      "inputs": [
        {
          "internalType": "address",
          "name": "storeAddress",
          "type": "address"
        }
      ],
      "name": "getReviewsForStore",
      "outputs": [
        {
          "components": [
            {
              "internalType": "string",
              "name": "comment",
              "type": "string"
            },
            {
              "internalType": "uint256",
              "name": "rating",
              "type": "uint256"
            },
            {
              "internalType": "uint256",
              "name": "likes",
              "type": "uint256"
            },
            {
              "internalType": "uint256",
              "name": "dislikes",
              "type": "uint256"
            },
            {
              "internalType": "address",
              "name": "author",
              "type": "address"
            },
            {
              "internalType": "address",
              "name": "store",
              "type": "address"
            },
            {
              "internalType": "bool",
              "name": "approved",
              "type": "bool"
            }
          ],
          "internalType": "struct Store.Review[]",
          "name": "",
          "type": "tuple[]"
        }
      ],
      "payable": false,
      "stateMutability": "view",
      "type": "function"
    },
    {
      "constant": true,
      "inputs": [],
      "name": "getApprovedStores",
      "outputs": [
        {
          "components": [
            {
              "internalType": "string",
              "name": "name",
              "type": "string"
            },
            {
              "internalType": "address",
              "name": "owner",
              "type": "address"
            },
            {
              "internalType": "bool",
              "name": "approved",
              "type": "bool"
            }
          ],
          "internalType": "struct Store.StoreInfo[]",
          "name": "",
          "type": "tuple[]"
        }
      ],
      "payable": false,
      "stateMutability": "view",
      "type": "function"
    },
    {
      "constant": true,
      "inputs": [],
      "name": "getAllUsers",
      "outputs": [
        {
          "components": [
            {
              "internalType": "string",
              "name": "name",
              "type": "string"
            },
            {
              "internalType": "string",
              "name": "password",
              "type": "string"
            },
            {
              "internalType": "bool",
              "name": "isAdmin",
              "type": "bool"
            },
            {
              "internalType": "bool",
              "name": "isSeller",
              "type": "bool"
            },
            {
              "internalType": "bool",
              "name": "isBuyer",
              "type": "bool"
            }
          ],
          "internalType": "struct Store.UserInfo[]",
          "name": "",
          "type": "tuple[]"
        }
      ],
      "payable": false,
      "stateMutability": "view",
      "type": "function"
    },
    {
      "constant": true,
      "inputs": [
        {
          "internalType": "string",
          "name": "username",
          "type": "string"
        },
        {
          "internalType": "string",
          "name": "password",
          "type": "string"
        }
      ],
      "name": "authUser",
      "outputs": [
        {
          "internalType": "bool",
          "name": "",
          "type": "bool"
        }
      ],
      "payable": false,
      "stateMutability": "view",
      "type": "function"
    },
    {
      "constant": true,
      "inputs": [
        {
          "internalType": "string",
          "name": "a",
          "type": "string"
        },
        {
          "internalType": "string",
          "name": "b",
          "type": "string"
        }
      ],
      "name": "compareStrings",
      "outputs": [
        {
          "internalType": "bool",
          "name": "",
          "type": "bool"
        }
      ],
      "payable": false,
      "stateMutability": "pure",
      "type": "function"
    },
    {
      "constant": true,
      "inputs": [
        {
          "internalType": "string",
          "name": "username",
          "type": "string"
        },
        {
          "internalType": "string",
          "name": "password",
          "type": "string"
        }
      ],
      "name": "isAdmin",
      "outputs": [
        {
          "internalType": "bool",
          "name": "",
          "type": "bool"
        }
      ],
      "payable": false,
      "stateMutability": "view",
      "type": "function"
    }
  ],
  "bytecode": "0x60806040526000600255600060045560006007553480156200002057600080fd5b506040518060a001604052806040518060400160405280600581526020017f41646d696e00000000000000000000000000000000000000000000000000000081525081526020016040518060400160405280600581526020017f41646d696e0000000000000000000000000000000000000000000000000000008152508152602001600115158152602001600015158152602001600015158152506000803373ffffffffffffffffffffffffffffffffffffffff1673ffffffffffffffffffffffffffffffffffffffff168152602001908152602001600020600082015181600001908051906020019062000117929190620003c1565b50602082015181600101908051906020019062000136929190620003c1565b5060408201518160020160006101000a81548160ff02191690831515021790555060608201518160020160016101000a81548160ff02191690831515021790555060808201518160020160026101000a81548160ff02191690831515021790555090505060013390806001815401808255809150509060018203906000526020600020016000909192909190916101000a81548173ffffffffffffffffffffffffffffffffffffffff021916908373ffffffffffffffffffffffffffffffffffffffff1602179055505060026000815480929190600101919050555060405180606001604052806040518060400160405280600d81526020017f44656661756c742053746f72650000000000000000000000000000000000000081525081526020013373ffffffffffffffffffffffffffffffffffffffff16815260200160011515815250600560003373ffffffffffffffffffffffffffffffffffffffff1673ffffffffffffffffffffffffffffffffffffffff1681526020019081526020016000206000820151816000019080519060200190620002d8929190620003c1565b5060208201518160010160006101000a81548173ffffffffffffffffffffffffffffffffffffffff021916908373ffffffffffffffffffffffffffffffffffffffff16021790555060408201518160010160146101000a81548160ff02191690831515021790555090505060063390806001815401808255809150509060018203906000526020600020016000909192909190916101000a81548173ffffffffffffffffffffffffffffffffffffffff021916908373ffffffffffffffffffffffffffffffffffffffff1602179055505060076000815480929190600101919050555062000470565b828054600181600116156101000203166002900490600052602060002090601f016020900481019282601f106200040457805160ff191683800117855562000435565b8280016001018555821562000435579182015b828111156200043457825182559160200191906001019062000417565b5b50905062000444919062000448565b5090565b6200046d91905b80821115620004695760008160009055506001016200044f565b5090565b90565b61223e80620004806000396000f3fe608060405234801561001057600080fd5b50600436106100cf5760003560e01c8063ab45500a1161008c578063bed34bba11610066578063bed34bba14610210578063e168b3a814610240578063e2842d791461025e578063f0c37a591461027c576100cf565b8063ab45500a146101b8578063b9ca868d146101d4578063bbcbab81146101f2576100cf565b806331157c15146100d4578063479e8f8e146100f057806351283cd9146101205780636d1e93231461015057806370d30ba21461018057806388557b071461019c575b600080fd5b6100ee60048036036100e991908101906118f0565b61029a565b005b61010a6004803603610105919081019061196d565b610386565b6040516101179190611f75565b60405180910390f35b61013a6004803603610135919081019061196d565b6105ba565b6040516101479190611f75565b60405180910390f35b61016a600480360361016591908101906118f0565b6107e3565b6040516101779190611f0f565b60405180910390f35b61019a60048036036101959190810190611a58565b610b08565b005b6101b660048036036101b191908101906119d9565b610c84565b005b6101d260048036036101cd9190810190611919565b610f4b565b005b6101dc6110c1565b6040516101e99190611fd0565b60405180910390f35b6101fa6110c7565b6040516102079190611f31565b60405180910390f35b61022a6004803603610225919081019061196d565b61138e565b6040516102379190611f75565b60405180910390f35b6102486113e7565b6040516102559190611fd0565b60405180910390f35b6102666113ed565b6040516102739190611f53565b60405180910390f35b610284611680565b6040516102919190611fd0565b60405180910390f35b6000803373ffffffffffffffffffffffffffffffffffffffff1673ffffffffffffffffffffffffffffffffffffffff16815260200190815260200160002060020160009054906101000a900460ff16610328576040517f08c379a000000000000000000000000000000000000000000000000000000000815260040161031f90611fb0565b60405180910390fd5b6001600560008373ffffffffffffffffffffffffffffffffffffffff1673ffffffffffffffffffffffffffffffffffffffff16815260200190815260200160002060010160146101000a81548160ff02191690831515021790555050565b6000610390611686565b6000803373ffffffffffffffffffffffffffffffffffffffff1673ffffffffffffffffffffffffffffffffffffffff1681526020019081526020016000206040518060a0016040529081600082018054600181600116156101000203166002900480601f0160208091040260200160405190810160405280929190818152602001828054600181600116156101000203166002900480156104725780601f1061044757610100808354040283529160200191610472565b820191906000526020600020905b81548152906001019060200180831161045557829003601f168201915b50505050508152602001600182018054600181600116156101000203166002900480601f0160208091040260200160405190810160405280929190818152602001828054600181600116156101000203166002900480156105145780601f106104e957610100808354040283529160200191610514565b820191906000526020600020905b8154815290600101906020018083116104f757829003601f168201915b505050505081526020016002820160009054906101000a900460ff161515151581526020016002820160019054906101000a900460ff161515151581526020016002820160029054906101000a900460ff161515151581525050905061057e81600001518561138e565b8015610594575061059381602001518461138e565b5b156105ae578060400151156105ad5760019150506105b4565b5b60009150505b92915050565b60006105c4611686565b6000803373ffffffffffffffffffffffffffffffffffffffff1673ffffffffffffffffffffffffffffffffffffffff1681526020019081526020016000206040518060a0016040529081600082018054600181600116156101000203166002900480601f0160208091040260200160405190810160405280929190818152602001828054600181600116156101000203166002900480156106a65780601f1061067b576101008083540402835291602001916106a6565b820191906000526020600020905b81548152906001019060200180831161068957829003601f168201915b50505050508152602001600182018054600181600116156101000203166002900480601f0160208091040260200160405190810160405280929190818152602001828054600181600116156101000203166002900480156107485780601f1061071d57610100808354040283529160200191610748565b820191906000526020600020905b81548152906001019060200180831161072b57829003601f168201915b505050505081526020016002820160009054906101000a900460ff161515151581526020016002820160019054906101000a900460ff161515151581526020016002820160029054906101000a900460ff16151515158152505090506107b281600001518561138e565b80156107c857506107c781602001518461138e565b5b156107d75760019150506107dd565b60009150505b92915050565b60608060045460405190808252806020026020018201604052801561082257816020015b61080f6116bb565b8152602001906001900390816108075790505b50905060008090506000600190505b6004548111610a76578473ffffffffffffffffffffffffffffffffffffffff166003600083815260200190815260200160002060050160009054906101000a900473ffffffffffffffffffffffffffffffffffffffff1673ffffffffffffffffffffffffffffffffffffffff161415610a6957600360008281526020019081526020016000206040518060e0016040529081600082018054600181600116156101000203166002900480601f01602080910402602001604051908101604052809291908181526020018280546001816001161561010002031660029004801561095b5780601f106109305761010080835404028352916020019161095b565b820191906000526020600020905b81548152906001019060200180831161093e57829003601f168201915b505050505081526020016001820154815260200160028201548152602001600382015481526020016004820160009054906101000a900473ffffffffffffffffffffffffffffffffffffffff1673ffffffffffffffffffffffffffffffffffffffff1673ffffffffffffffffffffffffffffffffffffffff1681526020016005820160009054906101000a900473ffffffffffffffffffffffffffffffffffffffff1673ffffffffffffffffffffffffffffffffffffffff1673ffffffffffffffffffffffffffffffffffffffff1681526020016005820160149054906101000a900460ff161515151581525050838381518110610a5557fe5b602002602001018190525081806001019250505b8080600101915050610831565b50606081604051908082528060200260200182016040528015610ab357816020015b610aa06116bb565b815260200190600190039081610a985790505b50905060008090505b82811015610afc57838181518110610ad057fe5b6020026020010151828281518110610ae457fe5b60200260200101819052508080600101915050610abc565b50809350505050919050565b6004600081548092919060010191905055506040518060e0016040528084815260200183815260200160008152602001600081526020013373ffffffffffffffffffffffffffffffffffffffff1681526020018273ffffffffffffffffffffffffffffffffffffffff168152602001600115158152506003600060045481526020019081526020016000206000820151816000019080519060200190610baf929190611726565b5060208201518160010155604082015181600201556060820151816003015560808201518160040160006101000a81548173ffffffffffffffffffffffffffffffffffffffff021916908373ffffffffffffffffffffffffffffffffffffffff16021790555060a08201518160050160006101000a81548173ffffffffffffffffffffffffffffffffffffffff021916908373ffffffffffffffffffffffffffffffffffffffff16021790555060c08201518160050160146101000a81548160ff021916908315150217905550905050505050565b6000808273ffffffffffffffffffffffffffffffffffffffff1673ffffffffffffffffffffffffffffffffffffffff16815260200190815260200160002060020160009054906101000a900460ff16158015610d2c57506000808273ffffffffffffffffffffffffffffffffffffffff1673ffffffffffffffffffffffffffffffffffffffff16815260200190815260200160002060020160019054906101000a900460ff16155b8015610d8457506000808273ffffffffffffffffffffffffffffffffffffffff1673ffffffffffffffffffffffffffffffffffffffff16815260200190815260200160002060020160029054906101000a900460ff16155b610dc3576040517f08c379a0000000000000000000000000000000000000000000000000000000008152600401610dba90611f90565b60405180910390fd5b6040518060a00160405280848152602001838152602001600015158152602001600015158152602001600015158152506000808373ffffffffffffffffffffffffffffffffffffffff1673ffffffffffffffffffffffffffffffffffffffff1681526020019081526020016000206000820151816000019080519060200190610e4d929190611726565b506020820151816001019080519060200190610e6a929190611726565b5060408201518160020160006101000a81548160ff02191690831515021790555060608201518160020160016101000a81548160ff02191690831515021790555060808201518160020160026101000a81548160ff02191690831515021790555090505060018190806001815401808255809150509060018203906000526020600020016000909192909190916101000a81548173ffffffffffffffffffffffffffffffffffffffff021916908373ffffffffffffffffffffffffffffffffffffffff16021790555050600260008154809291906001019190505550505050565b60405180606001604052808381526020018273ffffffffffffffffffffffffffffffffffffffff16815260200160001515815250600560008373ffffffffffffffffffffffffffffffffffffffff1673ffffffffffffffffffffffffffffffffffffffff1681526020019081526020016000206000820151816000019080519060200190610fda929190611726565b5060208201518160010160006101000a81548173ffffffffffffffffffffffffffffffffffffffff021916908373ffffffffffffffffffffffffffffffffffffffff16021790555060408201518160010160146101000a81548160ff02191690831515021790555090505060068190806001815401808255809150509060018203906000526020600020016000909192909190916101000a81548173ffffffffffffffffffffffffffffffffffffffff021916908373ffffffffffffffffffffffffffffffffffffffff160217905550506007600081548092919060010191905055505050565b60075481565b60608060075460405190808252806020026020018201604052801561110657816020015b6110f36117a6565b8152602001906001900390816110eb5790505b509050600080905060008090505b6006805490508110156112fe5760006006828154811061113057fe5b9060005260206000200160009054906101000a900473ffffffffffffffffffffffffffffffffffffffff1690506111656117df565b600560008373ffffffffffffffffffffffffffffffffffffffff1673ffffffffffffffffffffffffffffffffffffffff168152602001908152602001600020604051806060016040529081600082018054600181600116156101000203166002900480601f0160208091040260200160405190810160405280929190818152602001828054600181600116156101000203166002900480156112485780601f1061121d57610100808354040283529160200191611248565b820191906000526020600020905b81548152906001019060200180831161122b57829003601f168201915b505050505081526020016001820160009054906101000a900473ffffffffffffffffffffffffffffffffffffffff1673ffffffffffffffffffffffffffffffffffffffff1673ffffffffffffffffffffffffffffffffffffffff1681526020016001820160149054906101000a900460ff16151515158152505090508060400151156112ef57808585815181106112db57fe5b602002602001018190525083806001019450505b50508080600101915050611114565b5060608160405190808252806020026020018201604052801561133b57816020015b6113286117a6565b8152602001906001900390816113205790505b50905060008090505b828110156113845783818151811061135857fe5b602002602001015182828151811061136c57fe5b60200260200101819052508080600101915050611344565b5080935050505090565b6000816040516020016113a19190611ef8565b60405160208183030381529060405280519060200120836040516020016113c89190611ef8565b6040516020818303038152906040528051906020012014905092915050565b60045481565b60608060025460405190808252806020026020018201604052801561142c57816020015b611419611818565b8152602001906001900390816114115790505b50905060008090505b600254811015611678576000806001838154811061144f57fe5b9060005260206000200160009054906101000a900473ffffffffffffffffffffffffffffffffffffffff1673ffffffffffffffffffffffffffffffffffffffff1673ffffffffffffffffffffffffffffffffffffffff1681526020019081526020016000206040518060a0016040529081600082018054600181600116156101000203166002900480601f0160208091040260200160405190810160405280929190818152602001828054600181600116156101000203166002900480156115585780601f1061152d57610100808354040283529160200191611558565b820191906000526020600020905b81548152906001019060200180831161153b57829003601f168201915b50505050508152602001600182018054600181600116156101000203166002900480601f0160208091040260200160405190810160405280929190818152602001828054600181600116156101000203166002900480156115fa5780601f106115cf576101008083540402835291602001916115fa565b820191906000526020600020905b8154815290600101906020018083116115dd57829003601f168201915b505050505081526020016002820160009054906101000a900460ff161515151581526020016002820160019054906101000a900460ff161515151581526020016002820160029054906101000a900460ff16151515158152505082828151811061166057fe5b60200260200101819052508080600101915050611435565b508091505090565b60025481565b6040518060a0016040528060608152602001606081526020016000151581526020016000151581526020016000151581525090565b6040518060e0016040528060608152602001600081526020016000815260200160008152602001600073ffffffffffffffffffffffffffffffffffffffff168152602001600073ffffffffffffffffffffffffffffffffffffffff1681526020016000151581525090565b828054600181600116156101000203166002900490600052602060002090601f016020900481019282601f1061176757805160ff1916838001178555611795565b82800160010185558215611795579182015b82811115611794578251825591602001919060010190611779565b5b5090506117a2919061184d565b5090565b604051806060016040528060608152602001600073ffffffffffffffffffffffffffffffffffffffff1681526020016000151581525090565b604051806060016040528060608152602001600073ffffffffffffffffffffffffffffffffffffffff1681526020016000151581525090565b6040518060a0016040528060608152602001606081526020016000151581526020016000151581526020016000151581525090565b61186f91905b8082111561186b576000816000905550600101611853565b5090565b90565b600081359050611881816121cd565b92915050565b600082601f83011261189857600080fd5b81356118ab6118a682612018565b611feb565b915080825260208301602083018583830111156118c757600080fd5b6118d283828461217a565b50505092915050565b6000813590506118ea816121e4565b92915050565b60006020828403121561190257600080fd5b600061191084828501611872565b91505092915050565b6000806040838503121561192c57600080fd5b600083013567ffffffffffffffff81111561194657600080fd5b61195285828601611887565b925050602061196385828601611872565b9150509250929050565b6000806040838503121561198057600080fd5b600083013567ffffffffffffffff81111561199a57600080fd5b6119a685828601611887565b925050602083013567ffffffffffffffff8111156119c357600080fd5b6119cf85828601611887565b9150509250929050565b6000806000606084860312156119ee57600080fd5b600084013567ffffffffffffffff811115611a0857600080fd5b611a1486828701611887565b935050602084013567ffffffffffffffff811115611a3157600080fd5b611a3d86828701611887565b9250506040611a4e86828701611872565b9150509250925092565b600080600060608486031215611a6d57600080fd5b600084013567ffffffffffffffff811115611a8757600080fd5b611a9386828701611887565b9350506020611aa4868287016118db565b9250506040611ab586828701611872565b9150509250925092565b6000611acb8383611d71565b905092915050565b6000611adf8383611e0d565b905092915050565b6000611af38383611e5d565b905092915050565b611b0481612132565b82525050565b6000611b1582612074565b611b1f81856120d2565b935083602082028501611b3185612044565b8060005b85811015611b6d5784840389528151611b4e8582611abf565b9450611b59836120ab565b925060208a01995050600181019050611b35565b50829750879550505050505092915050565b6000611b8a8261207f565b611b9481856120e3565b935083602082028501611ba685612054565b8060005b85811015611be25784840389528151611bc38582611ad3565b9450611bce836120b8565b925060208a01995050600181019050611baa565b50829750879550505050505092915050565b6000611bff8261208a565b611c0981856120f4565b935083602082028501611c1b85612064565b8060005b85811015611c575784840389528151611c388582611ae7565b9450611c43836120c5565b925060208a01995050600181019050611c1f565b50829750879550505050505092915050565b611c7281612144565b82525050565b611c8181612144565b82525050565b6000611c92826120a0565b611c9c8185612127565b9350611cac818560208601612189565b80840191505092915050565b6000611cc382612095565b611ccd8185612105565b9350611cdd818560208601612189565b611ce6816121bc565b840191505092915050565b6000611cfe601783612116565b91507f5573657220616c726561647920726567697374657265640000000000000000006000830152602082019050919050565b6000611d3e601e83612116565b91507f4f6e6c792061646d696e732063616e20617070726f76652073746f72657300006000830152602082019050919050565b600060e0830160008301518482036000860152611d8e8282611cb8565b9150506020830151611da36020860182611eda565b506040830151611db66040860182611eda565b506060830151611dc96060860182611eda565b506080830151611ddc6080860182611afb565b5060a0830151611def60a0860182611afb565b5060c0830151611e0260c0860182611c69565b508091505092915050565b60006060830160008301518482036000860152611e2a8282611cb8565b9150506020830151611e3f6020860182611afb565b506040830151611e526040860182611c69565b508091505092915050565b600060a0830160008301518482036000860152611e7a8282611cb8565b91505060208301518482036020860152611e948282611cb8565b9150506040830151611ea96040860182611c69565b506060830151611ebc6060860182611c69565b506080830151611ecf6080860182611c69565b508091505092915050565b611ee381612170565b82525050565b611ef281612170565b82525050565b6000611f048284611c87565b915081905092915050565b60006020820190508181036000830152611f298184611b0a565b905092915050565b60006020820190508181036000830152611f4b8184611b7f565b905092915050565b60006020820190508181036000830152611f6d8184611bf4565b905092915050565b6000602082019050611f8a6000830184611c78565b92915050565b60006020820190508181036000830152611fa981611cf1565b9050919050565b60006020820190508181036000830152611fc981611d31565b9050919050565b6000602082019050611fe56000830184611ee9565b92915050565b6000604051905081810181811067ffffffffffffffff8211171561200e57600080fd5b8060405250919050565b600067ffffffffffffffff82111561202f57600080fd5b601f19601f8301169050602081019050919050565b6000819050602082019050919050565b6000819050602082019050919050565b6000819050602082019050919050565b600081519050919050565b600081519050919050565b600081519050919050565b600081519050919050565b600081519050919050565b6000602082019050919050565b6000602082019050919050565b6000602082019050919050565b600082825260208201905092915050565b600082825260208201905092915050565b600082825260208201905092915050565b600082825260208201905092915050565b600082825260208201905092915050565b600081905092915050565b600061213d82612150565b9050919050565b60008115159050919050565b600073ffffffffffffffffffffffffffffffffffffffff82169050919050565b6000819050919050565b82818337600083830152505050565b60005b838110156121a757808201518184015260208101905061218c565b838111156121b6576000848401525b50505050565b6000601f19601f8301169050919050565b6121d681612132565b81146121e157600080fd5b50565b6121ed81612170565b81146121f857600080fd5b5056fea365627a7a7231582000bd16d2a5f99b5ccbaa7f4f7f844b2d2a958907e46d014a85d53acfb353427a6c6578706572696d656e74616cf564736f6c63430005100040",
  "source": "// SPDX-License-Identifier: MIT\r\npragma solidity >=0.4.22 <0.9.0;\r\n\r\npragma experimental ABIEncoderV2;\r\n\r\ncontract Store {\r\n    //  \r\n    struct Review {\r\n        string comment; // \r\n        uint rating; // \r\n        uint likes; // \r\n        uint dislikes; // \r\n        address author; //  \r\n        address store; // ,    \r\n        bool approved; //   \r\n    }\r\n\r\n    //    \r\n    struct StoreInfo {\r\n        string name; //  \r\n        address owner; //  \r\n        bool approved; //   \r\n    }\r\n\r\n    //    \r\n    struct UserInfo {\r\n        string name; //  \r\n        string password; //  \r\n        bool isAdmin; //    \r\n        bool isSeller; //    \r\n        bool isBuyer; //    \r\n    }\r\n\r\n    //     \r\n    mapping(address => UserInfo) private users;\r\n    //   \r\n    address[] private userAddresses;\r\n    //  \r\n    uint public userCounter = 0;\r\n\r\n    //     \r\n    mapping(uint => Review) private reviews;\r\n    //  \r\n    uint public reviewCounter = 0;\r\n\r\n    //     \r\n    mapping(address => StoreInfo) private stores;\r\n    //   \r\n    address[] private storeAddresses;\r\n    //  \r\n    uint public storeCounter = 0;\r\n\r\n    //  \r\n    constructor() public {\r\n        //     .\r\n        users[msg.sender] = UserInfo(\"Admin\", \"Admin\", true, false, false);\r\n        userAddresses.push(msg.sender);\r\n        userCounter++;\r\n\r\n        //    .\r\n        stores[msg.sender] = StoreInfo(\"Default Store\", msg.sender, true);\r\n        storeAddresses.push(msg.sender);\r\n        storeCounter++;\r\n    }\r\n\r\n    //   \r\n    function registerUser(string memory name, string memory password, address userAddress) public {\r\n        require(!users[userAddress].isAdmin && !users[userAddress].isSeller && !users[userAddress].isBuyer, \"User already registered\");\r\n        users[userAddress] = UserInfo(name, password, false, false, false);\r\n        userAddresses.push(userAddress);\r\n        userCounter++;\r\n    }\r\n\r\n    //   \r\n    function registerStore(string memory name, address owner) public {\r\n        stores[owner] = StoreInfo(name, owner, false);\r\n        storeAddresses.push(owner);\r\n        storeCounter++;\r\n    }\r\n\r\n    //   \r\n    function approveStore(address storeAddress) public {\r\n        require(users[msg.sender].isAdmin, \"Only admins can approve stores\");\r\n        stores[storeAddress].approved = true;\r\n    }\r\n\r\n    //   \r\n    function registerReview(string memory comment, uint rating, address storeAddress) public {\r\n        reviewCounter++;\r\n        reviews[reviewCounter] = Review(comment, rating, 0, 0, msg.sender, storeAddress, true);\r\n    }\r\n\r\n    //     \r\n    function getReviewsForStore(address storeAddress) public view returns (Review[] memory) {\r\n        Review[] memory storeReviews = new Review[](reviewCounter);\r\n        uint index = 0;\r\n        for (uint i = 1; i <= reviewCounter; i++) {\r\n            if (reviews[i].store == storeAddress) {\r\n                storeReviews[index] = reviews[i];\r\n                index++;\r\n            }\r\n        }\r\n        Review[] memory result = new Review[](index);\r\n        for (uint j = 0; j < index; j++) {\r\n            result[j] = storeReviews[j];\r\n        }\r\n        return result;\r\n    }\r\n\r\n    //    \r\n    function getApprovedStores() public view returns (StoreInfo[] memory) {\r\n        StoreInfo[] memory approvedStores = new StoreInfo[](storeCounter);\r\n        uint index = 0;\r\n        for (uint i = 0; i < storeAddresses.length; i++) {\r\n            address storeAddress = storeAddresses[i];\r\n            StoreInfo memory store = stores[storeAddress];\r\n            if (store.approved) {\r\n                approvedStores[index] = store;\r\n                index++;\r\n            }\r\n        }\r\n        StoreInfo[] memory result = new StoreInfo[](index);\r\n        for (uint j = 0; j < index; j++) {\r\n            result[j] = approvedStores[j];\r\n        }\r\n        return result;\r\n    }\r\n\r\n    //    \r\n    function getAllUsers() public view returns (UserInfo[] memory) {\r\n        UserInfo[] memory allUsers = new UserInfo[](userCounter);\r\n        for (uint i = 0; i < userCounter; i++) {\r\n            allUsers[i] = users[userAddresses[i]];\r\n        }\r\n        return allUsers;\r\n    }\r\n\r\n   function authUser(string memory username, string memory password) public view returns (bool) {\r\n       UserInfo memory user = users[msg.sender];\r\n       if (compareStrings(user.name, username) && compareStrings(user.password, password)) {\r\n         return true;\r\n       }\r\n       return false;\r\n   }\r\n   \r\n   function compareStrings(string memory a, string memory b) public pure returns (bool) {\r\n     return keccak256(abi.encodePacked(a)) == keccak256(abi.encodePacked(b));\r\n    }\r\n\r\n    //       \r\n    function isAdmin(string memory username, string memory password) public view returns (bool) {\r\n       UserInfo memory user = users[msg.sender];\r\n       if (compareStrings(user.name, username) && compareStrings(user.password, password)) {\r\n        if (user.isAdmin) {\r\n            return true;\r\n        }\r\n        }\r\n        return false;\r\n    }\r\n\r\n}\r\n",
  "sourcePath": "C:\\Users\\zover\\WebstormProjects\\ethereum-store-dapp\\src\\solidity-contracts\\contracts\\Store.sol",
  "compiler": {
    "name": "solc",
    "version": "0.5.16+commit.9c3226ce.Emscripten.clang"
  },
  "schemaVersion": "3.4.16",
  "updatedAt": "2024-03-09T14:37:43.095Z",
  "networkType": "ethereum",
  "devdoc": {
    "methods": {}
  },
  "userdoc": {
    "methods": {}
  }
}