{
  "contractName": "Store",
  "abi": [
    {
      "inputs": [],
      "payable": false,
      "stateMutability": "nonpayable",
      "type": "constructor"
    },
    {
      "constant": true,
      "inputs": [],
      "name": "reviewCounter",
      "outputs": [
        {
          "internalType": "uint256",
          "name": "",
          "type": "uint256"
        }
      ],
      "payable": false,
      "stateMutability": "view",
      "type": "function"
    },
    {
      "constant": true,
      "inputs": [],
      "name": "storeCounter",
      "outputs": [
        {
          "internalType": "uint256",
          "name": "",
          "type": "uint256"
        }
      ],
      "payable": false,
      "stateMutability": "view",
      "type": "function"
    },
    {
      "constant": true,
      "inputs": [],
      "name": "userCounter",
      "outputs": [
        {
          "internalType": "uint256",
          "name": "",
          "type": "uint256"
        }
      ],
      "payable": false,
      "stateMutability": "view",
      "type": "function"
    },
    {
      "constant": false,
      "inputs": [
        {
          "internalType": "string",
          "name": "name",
          "type": "string"
        },
        {
          "internalType": "string",
          "name": "password",
          "type": "string"
        },
        {
          "internalType": "address",
          "name": "userAddress",
          "type": "address"
        }
      ],
      "name": "registerUser",
      "outputs": [],
      "payable": false,
      "stateMutability": "nonpayable",
      "type": "function"
    },
    {
      "constant": false,
      "inputs": [
        {
          "internalType": "string",
          "name": "name",
          "type": "string"
        },
        {
          "internalType": "string",
          "name": "password",
          "type": "string"
        },
        {
          "internalType": "address",
          "name": "userAddress",
          "type": "address"
        }
      ],
      "name": "createAdmin",
      "outputs": [],
      "payable": false,
      "stateMutability": "nonpayable",
      "type": "function"
    },
    {
      "constant": false,
      "inputs": [
        {
          "internalType": "address",
          "name": "userAddress",
          "type": "address"
        }
      ],
      "name": "approveAdmin",
      "outputs": [],
      "payable": false,
      "stateMutability": "nonpayable",
      "type": "function"
    },
    {
      "constant": false,
      "inputs": [
        {
          "internalType": "string",
          "name": "name",
          "type": "string"
        },
        {
          "internalType": "address",
          "name": "owner",
          "type": "address"
        }
      ],
      "name": "registerStore",
      "outputs": [],
      "payable": false,
      "stateMutability": "nonpayable",
      "type": "function"
    },
    {
      "constant": false,
      "inputs": [
        {
          "internalType": "address",
          "name": "storeAddress",
          "type": "address"
        }
      ],
      "name": "approveStore",
      "outputs": [],
      "payable": false,
      "stateMutability": "nonpayable",
      "type": "function"
    },
    {
      "constant": false,
      "inputs": [
        {
          "internalType": "string",
          "name": "comment",
          "type": "string"
        },
        {
          "internalType": "uint256",
          "name": "rating",
          "type": "uint256"
        },
        {
          "internalType": "address",
          "name": "storeAddress",
          "type": "address"
        }
      ],
      "name": "registerReview",
      "outputs": [],
      "payable": false,
      "stateMutability": "nonpayable",
      "type": "function"
    },
    {
      "constant": true,
      "inputs": [
        {
          "internalType": "address",
          "name": "storeAddress",
          "type": "address"
        }
      ],
      "name": "getReviewsForStore",
      "outputs": [
        {
          "components": [
            {
              "internalType": "string",
              "name": "comment",
              "type": "string"
            },
            {
              "internalType": "uint256",
              "name": "rating",
              "type": "uint256"
            },
            {
              "internalType": "uint256",
              "name": "likes",
              "type": "uint256"
            },
            {
              "internalType": "uint256",
              "name": "dislikes",
              "type": "uint256"
            },
            {
              "internalType": "address",
              "name": "author",
              "type": "address"
            },
            {
              "internalType": "address",
              "name": "store",
              "type": "address"
            },
            {
              "internalType": "bool",
              "name": "approved",
              "type": "bool"
            }
          ],
          "internalType": "struct Store.Review[]",
          "name": "",
          "type": "tuple[]"
        }
      ],
      "payable": false,
      "stateMutability": "view",
      "type": "function"
    },
    {
      "constant": true,
      "inputs": [],
      "name": "getApprovedStores",
      "outputs": [
        {
          "components": [
            {
              "internalType": "string",
              "name": "name",
              "type": "string"
            },
            {
              "internalType": "address",
              "name": "owner",
              "type": "address"
            },
            {
              "internalType": "bool",
              "name": "approved",
              "type": "bool"
            }
          ],
          "internalType": "struct Store.StoreInfo[]",
          "name": "",
          "type": "tuple[]"
        }
      ],
      "payable": false,
      "stateMutability": "view",
      "type": "function"
    },
    {
      "constant": true,
      "inputs": [],
      "name": "getAllUsers",
      "outputs": [
        {
          "components": [
            {
              "internalType": "string",
              "name": "name",
              "type": "string"
            },
            {
              "internalType": "string",
              "name": "password",
              "type": "string"
            },
            {
              "internalType": "bool",
              "name": "isAdmin",
              "type": "bool"
            },
            {
              "internalType": "bool",
              "name": "isSeller",
              "type": "bool"
            },
            {
              "internalType": "bool",
              "name": "isBuyer",
              "type": "bool"
            }
          ],
          "internalType": "struct Store.UserInfo[]",
          "name": "",
          "type": "tuple[]"
        }
      ],
      "payable": false,
      "stateMutability": "view",
      "type": "function"
    },
    {
      "constant": true,
      "inputs": [
        {
          "internalType": "string",
          "name": "username",
          "type": "string"
        },
        {
          "internalType": "string",
          "name": "password",
          "type": "string"
        }
      ],
      "name": "authUser",
      "outputs": [
        {
          "internalType": "bool",
          "name": "",
          "type": "bool"
        }
      ],
      "payable": false,
      "stateMutability": "view",
      "type": "function"
    },
    {
      "constant": true,
      "inputs": [
        {
          "internalType": "string",
          "name": "a",
          "type": "string"
        },
        {
          "internalType": "string",
          "name": "b",
          "type": "string"
        }
      ],
      "name": "compareStrings",
      "outputs": [
        {
          "internalType": "bool",
          "name": "",
          "type": "bool"
        }
      ],
      "payable": false,
      "stateMutability": "pure",
      "type": "function"
    },
    {
      "constant": true,
      "inputs": [
        {
          "internalType": "string",
          "name": "username",
          "type": "string"
        },
        {
          "internalType": "string",
          "name": "password",
          "type": "string"
        }
      ],
      "name": "isAdmin",
      "outputs": [
        {
          "internalType": "bool",
          "name": "",
          "type": "bool"
        }
      ],
      "payable": false,
      "stateMutability": "view",
      "type": "function"
    },
    {
      "constant": false,
      "inputs": [
        {
          "internalType": "address",
          "name": "storeAddress",
          "type": "address"
        }
      ],
      "name": "removeStore",
      "outputs": [],
      "payable": false,
      "stateMutability": "nonpayable",
      "type": "function"
    }
  ],
  "bytecode": "0x60806040526000600255600060045560006007553480156200002057600080fd5b506040518060a001604052806040518060400160405280600581526020017f41646d696e00000000000000000000000000000000000000000000000000000081525081526020016040518060400160405280600581526020017f41646d696e0000000000000000000000000000000000000000000000000000008152508152602001600115158152602001600015158152602001600015158152506000803373ffffffffffffffffffffffffffffffffffffffff1673ffffffffffffffffffffffffffffffffffffffff168152602001908152602001600020600082015181600001908051906020019062000117929190620003c1565b50602082015181600101908051906020019062000136929190620003c1565b5060408201518160020160006101000a81548160ff02191690831515021790555060608201518160020160016101000a81548160ff02191690831515021790555060808201518160020160026101000a81548160ff02191690831515021790555090505060013390806001815401808255809150509060018203906000526020600020016000909192909190916101000a81548173ffffffffffffffffffffffffffffffffffffffff021916908373ffffffffffffffffffffffffffffffffffffffff1602179055505060026000815480929190600101919050555060405180606001604052806040518060400160405280600d81526020017f44656661756c742053746f72650000000000000000000000000000000000000081525081526020013373ffffffffffffffffffffffffffffffffffffffff16815260200160011515815250600560003373ffffffffffffffffffffffffffffffffffffffff1673ffffffffffffffffffffffffffffffffffffffff1681526020019081526020016000206000820151816000019080519060200190620002d8929190620003c1565b5060208201518160010160006101000a81548173ffffffffffffffffffffffffffffffffffffffff021916908373ffffffffffffffffffffffffffffffffffffffff16021790555060408201518160010160146101000a81548160ff02191690831515021790555090505060063390806001815401808255809150509060018203906000526020600020016000909192909190916101000a81548173ffffffffffffffffffffffffffffffffffffffff021916908373ffffffffffffffffffffffffffffffffffffffff1602179055505060076000815480929190600101919050555062000470565b828054600181600116156101000203166002900490600052602060002090601f016020900481019282601f106200040457805160ff191683800117855562000435565b8280016001018555821562000435579182015b828111156200043457825182559160200191906001019062000417565b5b50905062000444919062000448565b5090565b6200046d91905b80821115620004695760008160009055506001016200044f565b5090565b90565b612ac280620004806000396000f3fe608060405234801561001057600080fd5b50600436106101005760003560e01c80638dbe1a1711610097578063bed34bba11610066578063bed34bba14610295578063e168b3a8146102c5578063e2842d79146102e3578063f0c37a591461030157610100565b80638dbe1a1714610221578063ab45500a1461023d578063b9ca868d14610259578063bbcbab811461027757610100565b80636d1e9323116100d35780636d1e93231461019d5780636d73e669146101cd57806370d30ba2146101e957806388557b071461020557610100565b8063034b4b681461010557806331157c1514610121578063479e8f8e1461013d57806351283cd91461016d575b600080fd5b61011f600480360361011a919081019061219d565b61031f565b005b61013b600480360361013691908101906120b4565b6105e6565b005b61015760048036036101529190810190612131565b6106d2565b60405161016491906127b9565b60405180910390f35b61018760048036036101829190810190612131565b610906565b60405161019491906127b9565b60405180910390f35b6101b760048036036101b291908101906120b4565b610b2f565b6040516101c49190612753565b60405180910390f35b6101e760048036036101e291908101906120b4565b610e54565b005b61020360048036036101fe919081019061221c565b610f3f565b005b61021f600480360361021a919081019061219d565b6110bb565b005b61023b600480360361023691908101906120b4565b611382565b005b610257600480360361025291908101906120dd565b6116c7565b005b61026161183d565b60405161026e9190612854565b60405180910390f35b61027f611843565b60405161028c9190612775565b60405180910390f35b6102af60048036036102aa9190810190612131565b611b0a565b6040516102bc91906127b9565b60405180910390f35b6102cd611b63565b6040516102da9190612854565b60405180910390f35b6102eb611b69565b6040516102f89190612797565b60405180910390f35b610309611dfc565b6040516103169190612854565b60405180910390f35b6000808273ffffffffffffffffffffffffffffffffffffffff1673ffffffffffffffffffffffffffffffffffffffff16815260200190815260200160002060020160009054906101000a900460ff161580156103c757506000808273ffffffffffffffffffffffffffffffffffffffff1673ffffffffffffffffffffffffffffffffffffffff16815260200190815260200160002060020160019054906101000a900460ff16155b801561041f57506000808273ffffffffffffffffffffffffffffffffffffffff1673ffffffffffffffffffffffffffffffffffffffff16815260200190815260200160002060020160029054906101000a900460ff16155b61045e576040517f08c379a000000000000000000000000000000000000000000000000000000000815260040161045590612814565b60405180910390fd5b6040518060a00160405280848152602001838152602001600115158152602001600015158152602001600015158152506000803373ffffffffffffffffffffffffffffffffffffffff1673ffffffffffffffffffffffffffffffffffffffff16815260200190815260200160002060008201518160000190805190602001906104e8929190611e02565b506020820151816001019080519060200190610505929190611e02565b5060408201518160020160006101000a81548160ff02191690831515021790555060608201518160020160016101000a81548160ff02191690831515021790555060808201518160020160026101000a81548160ff02191690831515021790555090505060018190806001815401808255809150509060018203906000526020600020016000909192909190916101000a81548173ffffffffffffffffffffffffffffffffffffffff021916908373ffffffffffffffffffffffffffffffffffffffff16021790555050600260008154809291906001019190505550505050565b6000803373ffffffffffffffffffffffffffffffffffffffff1673ffffffffffffffffffffffffffffffffffffffff16815260200190815260200160002060020160009054906101000a900460ff16610674576040517f08c379a000000000000000000000000000000000000000000000000000000000815260040161066b90612834565b60405180910390fd5b6001600560008373ffffffffffffffffffffffffffffffffffffffff1673ffffffffffffffffffffffffffffffffffffffff16815260200190815260200160002060010160146101000a81548160ff02191690831515021790555050565b60006106dc611e82565b6000803373ffffffffffffffffffffffffffffffffffffffff1673ffffffffffffffffffffffffffffffffffffffff1681526020019081526020016000206040518060a0016040529081600082018054600181600116156101000203166002900480601f0160208091040260200160405190810160405280929190818152602001828054600181600116156101000203166002900480156107be5780601f10610793576101008083540402835291602001916107be565b820191906000526020600020905b8154815290600101906020018083116107a157829003601f168201915b50505050508152602001600182018054600181600116156101000203166002900480601f0160208091040260200160405190810160405280929190818152602001828054600181600116156101000203166002900480156108605780601f1061083557610100808354040283529160200191610860565b820191906000526020600020905b81548152906001019060200180831161084357829003601f168201915b505050505081526020016002820160009054906101000a900460ff161515151581526020016002820160019054906101000a900460ff161515151581526020016002820160029054906101000a900460ff16151515158152505090506108ca816000015185611b0a565b80156108e057506108df816020015184611b0a565b5b156108fa578060400151156108f9576001915050610900565b5b60009150505b92915050565b6000610910611e82565b6000803373ffffffffffffffffffffffffffffffffffffffff1673ffffffffffffffffffffffffffffffffffffffff1681526020019081526020016000206040518060a0016040529081600082018054600181600116156101000203166002900480601f0160208091040260200160405190810160405280929190818152602001828054600181600116156101000203166002900480156109f25780601f106109c7576101008083540402835291602001916109f2565b820191906000526020600020905b8154815290600101906020018083116109d557829003601f168201915b50505050508152602001600182018054600181600116156101000203166002900480601f016020809104026020016040519081016040528092919081815260200182805460018160011615610100020316600290048015610a945780601f10610a6957610100808354040283529160200191610a94565b820191906000526020600020905b815481529060010190602001808311610a7757829003601f168201915b505050505081526020016002820160009054906101000a900460ff161515151581526020016002820160019054906101000a900460ff161515151581526020016002820160029054906101000a900460ff1615151515815250509050610afe816000015185611b0a565b8015610b145750610b13816020015184611b0a565b5b15610b23576001915050610b29565b60009150505b92915050565b606080600454604051908082528060200260200182016040528015610b6e57816020015b610b5b611eb7565b815260200190600190039081610b535790505b50905060008090506000600190505b6004548111610dc2578473ffffffffffffffffffffffffffffffffffffffff166003600083815260200190815260200160002060050160009054906101000a900473ffffffffffffffffffffffffffffffffffffffff1673ffffffffffffffffffffffffffffffffffffffff161415610db557600360008281526020019081526020016000206040518060e0016040529081600082018054600181600116156101000203166002900480601f016020809104026020016040519081016040528092919081815260200182805460018160011615610100020316600290048015610ca75780601f10610c7c57610100808354040283529160200191610ca7565b820191906000526020600020905b815481529060010190602001808311610c8a57829003601f168201915b505050505081526020016001820154815260200160028201548152602001600382015481526020016004820160009054906101000a900473ffffffffffffffffffffffffffffffffffffffff1673ffffffffffffffffffffffffffffffffffffffff1673ffffffffffffffffffffffffffffffffffffffff1681526020016005820160009054906101000a900473ffffffffffffffffffffffffffffffffffffffff1673ffffffffffffffffffffffffffffffffffffffff1673ffffffffffffffffffffffffffffffffffffffff1681526020016005820160149054906101000a900460ff161515151581525050838381518110610da157fe5b602002602001018190525081806001019250505b8080600101915050610b7d565b50606081604051908082528060200260200182016040528015610dff57816020015b610dec611eb7565b815260200190600190039081610de45790505b50905060008090505b82811015610e4857838181518110610e1c57fe5b6020026020010151828281518110610e3057fe5b60200260200101819052508080600101915050610e08565b50809350505050919050565b6000803373ffffffffffffffffffffffffffffffffffffffff1673ffffffffffffffffffffffffffffffffffffffff16815260200190815260200160002060020160009054906101000a900460ff16610ee2576040517f08c379a0000000000000000000000000000000000000000000000000000000008152600401610ed990612834565b60405180910390fd5b60016000808373ffffffffffffffffffffffffffffffffffffffff1673ffffffffffffffffffffffffffffffffffffffff16815260200190815260200160002060020160006101000a81548160ff02191690831515021790555050565b6004600081548092919060010191905055506040518060e0016040528084815260200183815260200160008152602001600081526020013373ffffffffffffffffffffffffffffffffffffffff1681526020018273ffffffffffffffffffffffffffffffffffffffff168152602001600115158152506003600060045481526020019081526020016000206000820151816000019080519060200190610fe6929190611e02565b5060208201518160010155604082015181600201556060820151816003015560808201518160040160006101000a81548173ffffffffffffffffffffffffffffffffffffffff021916908373ffffffffffffffffffffffffffffffffffffffff16021790555060a08201518160050160006101000a81548173ffffffffffffffffffffffffffffffffffffffff021916908373ffffffffffffffffffffffffffffffffffffffff16021790555060c08201518160050160146101000a81548160ff021916908315150217905550905050505050565b6000808273ffffffffffffffffffffffffffffffffffffffff1673ffffffffffffffffffffffffffffffffffffffff16815260200190815260200160002060020160009054906101000a900460ff1615801561116357506000808273ffffffffffffffffffffffffffffffffffffffff1673ffffffffffffffffffffffffffffffffffffffff16815260200190815260200160002060020160019054906101000a900460ff16155b80156111bb57506000808273ffffffffffffffffffffffffffffffffffffffff1673ffffffffffffffffffffffffffffffffffffffff16815260200190815260200160002060020160029054906101000a900460ff16155b6111fa576040517f08c379a00000000000000000000000000000000000000000000000000000000081526004016111f190612814565b60405180910390fd5b6040518060a00160405280848152602001838152602001600015158152602001600015158152602001600015158152506000808373ffffffffffffffffffffffffffffffffffffffff1673ffffffffffffffffffffffffffffffffffffffff1681526020019081526020016000206000820151816000019080519060200190611284929190611e02565b5060208201518160010190805190602001906112a1929190611e02565b5060408201518160020160006101000a81548160ff02191690831515021790555060608201518160020160016101000a81548160ff02191690831515021790555060808201518160020160026101000a81548160ff02191690831515021790555090505060018190806001815401808255809150509060018203906000526020600020016000909192909190916101000a81548173ffffffffffffffffffffffffffffffffffffffff021916908373ffffffffffffffffffffffffffffffffffffffff16021790555050600260008154809291906001019190505550505050565b6000803373ffffffffffffffffffffffffffffffffffffffff1673ffffffffffffffffffffffffffffffffffffffff16815260200190815260200160002060020160009054906101000a900460ff16611410576040517f08c379a0000000000000000000000000000000000000000000000000000000008152600401611407906127f4565b60405180910390fd5b600560008273ffffffffffffffffffffffffffffffffffffffff1673ffffffffffffffffffffffffffffffffffffffff16815260200190815260200160002060010160149054906101000a900460ff1661149f576040517f08c379a0000000000000000000000000000000000000000000000000000000008152600401611496906127d4565b60405180910390fd5b600560008273ffffffffffffffffffffffffffffffffffffffff1673ffffffffffffffffffffffffffffffffffffffff168152602001908152602001600020600080820160006114ef9190611f22565b6001820160006101000a81549073ffffffffffffffffffffffffffffffffffffffff02191690556001820160146101000a81549060ff0219169055505060008090505b6006805490508110156116b0578173ffffffffffffffffffffffffffffffffffffffff166006828154811061156357fe5b9060005260206000200160009054906101000a900473ffffffffffffffffffffffffffffffffffffffff1673ffffffffffffffffffffffffffffffffffffffff1614156116a35760008190505b60016006805490500381101561165d57600660018201815481106115d057fe5b9060005260206000200160009054906101000a900473ffffffffffffffffffffffffffffffffffffffff166006828154811061160857fe5b9060005260206000200160006101000a81548173ffffffffffffffffffffffffffffffffffffffff021916908373ffffffffffffffffffffffffffffffffffffffff16021790555080806001019150506115b0565b50600680548061166957fe5b6001900381819060005260206000200160006101000a81549073ffffffffffffffffffffffffffffffffffffffff021916905590556116b0565b8080600101915050611532565b506007600081548092919060019003919050555050565b60405180606001604052808381526020018273ffffffffffffffffffffffffffffffffffffffff16815260200160001515815250600560008373ffffffffffffffffffffffffffffffffffffffff1673ffffffffffffffffffffffffffffffffffffffff1681526020019081526020016000206000820151816000019080519060200190611756929190611e02565b5060208201518160010160006101000a81548173ffffffffffffffffffffffffffffffffffffffff021916908373ffffffffffffffffffffffffffffffffffffffff16021790555060408201518160010160146101000a81548160ff02191690831515021790555090505060068190806001815401808255809150509060018203906000526020600020016000909192909190916101000a81548173ffffffffffffffffffffffffffffffffffffffff021916908373ffffffffffffffffffffffffffffffffffffffff160217905550506007600081548092919060010191905055505050565b60075481565b60608060075460405190808252806020026020018201604052801561188257816020015b61186f611f6a565b8152602001906001900390816118675790505b509050600080905060008090505b600680549050811015611a7a576000600682815481106118ac57fe5b9060005260206000200160009054906101000a900473ffffffffffffffffffffffffffffffffffffffff1690506118e1611fa3565b600560008373ffffffffffffffffffffffffffffffffffffffff1673ffffffffffffffffffffffffffffffffffffffff168152602001908152602001600020604051806060016040529081600082018054600181600116156101000203166002900480601f0160208091040260200160405190810160405280929190818152602001828054600181600116156101000203166002900480156119c45780601f10611999576101008083540402835291602001916119c4565b820191906000526020600020905b8154815290600101906020018083116119a757829003601f168201915b505050505081526020016001820160009054906101000a900473ffffffffffffffffffffffffffffffffffffffff1673ffffffffffffffffffffffffffffffffffffffff1673ffffffffffffffffffffffffffffffffffffffff1681526020016001820160149054906101000a900460ff1615151515815250509050806040015115611a6b5780858581518110611a5757fe5b602002602001018190525083806001019450505b50508080600101915050611890565b50606081604051908082528060200260200182016040528015611ab757816020015b611aa4611f6a565b815260200190600190039081611a9c5790505b50905060008090505b82811015611b0057838181518110611ad457fe5b6020026020010151828281518110611ae857fe5b60200260200101819052508080600101915050611ac0565b5080935050505090565b600081604051602001611b1d919061273c565b6040516020818303038152906040528051906020012083604051602001611b44919061273c565b6040516020818303038152906040528051906020012014905092915050565b60045481565b606080600254604051908082528060200260200182016040528015611ba857816020015b611b95611fdc565b815260200190600190039081611b8d5790505b50905060008090505b600254811015611df45760008060018381548110611bcb57fe5b9060005260206000200160009054906101000a900473ffffffffffffffffffffffffffffffffffffffff1673ffffffffffffffffffffffffffffffffffffffff1673ffffffffffffffffffffffffffffffffffffffff1681526020019081526020016000206040518060a0016040529081600082018054600181600116156101000203166002900480601f016020809104026020016040519081016040528092919081815260200182805460018160011615610100020316600290048015611cd45780601f10611ca957610100808354040283529160200191611cd4565b820191906000526020600020905b815481529060010190602001808311611cb757829003601f168201915b50505050508152602001600182018054600181600116156101000203166002900480601f016020809104026020016040519081016040528092919081815260200182805460018160011615610100020316600290048015611d765780601f10611d4b57610100808354040283529160200191611d76565b820191906000526020600020905b815481529060010190602001808311611d5957829003601f168201915b505050505081526020016002820160009054906101000a900460ff161515151581526020016002820160019054906101000a900460ff161515151581526020016002820160029054906101000a900460ff161515151581525050828281518110611ddc57fe5b60200260200101819052508080600101915050611bb1565b508091505090565b60025481565b828054600181600116156101000203166002900490600052602060002090601f016020900481019282601f10611e4357805160ff1916838001178555611e71565b82800160010185558215611e71579182015b82811115611e70578251825591602001919060010190611e55565b5b509050611e7e9190612011565b5090565b6040518060a0016040528060608152602001606081526020016000151581526020016000151581526020016000151581525090565b6040518060e0016040528060608152602001600081526020016000815260200160008152602001600073ffffffffffffffffffffffffffffffffffffffff168152602001600073ffffffffffffffffffffffffffffffffffffffff1681526020016000151581525090565b50805460018160011615610100020316600290046000825580601f10611f485750611f67565b601f016020900490600052602060002090810190611f669190612011565b5b50565b604051806060016040528060608152602001600073ffffffffffffffffffffffffffffffffffffffff1681526020016000151581525090565b604051806060016040528060608152602001600073ffffffffffffffffffffffffffffffffffffffff1681526020016000151581525090565b6040518060a0016040528060608152602001606081526020016000151581526020016000151581526020016000151581525090565b61203391905b8082111561202f576000816000905550600101612017565b5090565b90565b60008135905061204581612a51565b92915050565b600082601f83011261205c57600080fd5b813561206f61206a8261289c565b61286f565b9150808252602083016020830185838301111561208b57600080fd5b6120968382846129fe565b50505092915050565b6000813590506120ae81612a68565b92915050565b6000602082840312156120c657600080fd5b60006120d484828501612036565b91505092915050565b600080604083850312156120f057600080fd5b600083013567ffffffffffffffff81111561210a57600080fd5b6121168582860161204b565b925050602061212785828601612036565b9150509250929050565b6000806040838503121561214457600080fd5b600083013567ffffffffffffffff81111561215e57600080fd5b61216a8582860161204b565b925050602083013567ffffffffffffffff81111561218757600080fd5b6121938582860161204b565b9150509250929050565b6000806000606084860312156121b257600080fd5b600084013567ffffffffffffffff8111156121cc57600080fd5b6121d88682870161204b565b935050602084013567ffffffffffffffff8111156121f557600080fd5b6122018682870161204b565b925050604061221286828701612036565b9150509250925092565b60008060006060848603121561223157600080fd5b600084013567ffffffffffffffff81111561224b57600080fd5b6122578682870161204b565b93505060206122688682870161209f565b925050604061227986828701612036565b9150509250925092565b600061228f83836125b5565b905092915050565b60006122a38383612651565b905092915050565b60006122b783836126a1565b905092915050565b6122c8816129b6565b82525050565b60006122d9826128f8565b6122e38185612956565b9350836020820285016122f5856128c8565b8060005b8581101561233157848403895281516123128582612283565b945061231d8361292f565b925060208a019950506001810190506122f9565b50829750879550505050505092915050565b600061234e82612903565b6123588185612967565b93508360208202850161236a856128d8565b8060005b858110156123a657848403895281516123878582612297565b94506123928361293c565b925060208a0199505060018101905061236e565b50829750879550505050505092915050565b60006123c38261290e565b6123cd8185612978565b9350836020820285016123df856128e8565b8060005b8581101561241b57848403895281516123fc85826122ab565b945061240783612949565b925060208a019950506001810190506123e3565b50829750879550505050505092915050565b612436816129c8565b82525050565b612445816129c8565b82525050565b600061245682612924565b61246081856129ab565b9350612470818560208601612a0d565b80840191505092915050565b600061248782612919565b6124918185612989565b93506124a1818560208601612a0d565b6124aa81612a40565b840191505092915050565b60006124c260158361299a565b91507f53746f7265206973206e6f7420617070726f76656400000000000000000000006000830152602082019050919050565b6000612502601d8361299a565b91507f4f6e6c792061646d696e732063616e2072656d6f76652073746f7265730000006000830152602082019050919050565b600061254260178361299a565b91507f5573657220616c726561647920726567697374657265640000000000000000006000830152602082019050919050565b6000612582601e8361299a565b91507f4f6e6c792061646d696e732063616e20617070726f76652073746f72657300006000830152602082019050919050565b600060e08301600083015184820360008601526125d2828261247c565b91505060208301516125e7602086018261271e565b5060408301516125fa604086018261271e565b50606083015161260d606086018261271e565b50608083015161262060808601826122bf565b5060a083015161263360a08601826122bf565b5060c083015161264660c086018261242d565b508091505092915050565b6000606083016000830151848203600086015261266e828261247c565b915050602083015161268360208601826122bf565b506040830151612696604086018261242d565b508091505092915050565b600060a08301600083015184820360008601526126be828261247c565b915050602083015184820360208601526126d8828261247c565b91505060408301516126ed604086018261242d565b506060830151612700606086018261242d565b506080830151612713608086018261242d565b508091505092915050565b612727816129f4565b82525050565b612736816129f4565b82525050565b6000612748828461244b565b915081905092915050565b6000602082019050818103600083015261276d81846122ce565b905092915050565b6000602082019050818103600083015261278f8184612343565b905092915050565b600060208201905081810360008301526127b181846123b8565b905092915050565b60006020820190506127ce600083018461243c565b92915050565b600060208201905081810360008301526127ed816124b5565b9050919050565b6000602082019050818103600083015261280d816124f5565b9050919050565b6000602082019050818103600083015261282d81612535565b9050919050565b6000602082019050818103600083015261284d81612575565b9050919050565b6000602082019050612869600083018461272d565b92915050565b6000604051905081810181811067ffffffffffffffff8211171561289257600080fd5b8060405250919050565b600067ffffffffffffffff8211156128b357600080fd5b601f19601f8301169050602081019050919050565b6000819050602082019050919050565b6000819050602082019050919050565b6000819050602082019050919050565b600081519050919050565b600081519050919050565b600081519050919050565b600081519050919050565b600081519050919050565b6000602082019050919050565b6000602082019050919050565b6000602082019050919050565b600082825260208201905092915050565b600082825260208201905092915050565b600082825260208201905092915050565b600082825260208201905092915050565b600082825260208201905092915050565b600081905092915050565b60006129c1826129d4565b9050919050565b60008115159050919050565b600073ffffffffffffffffffffffffffffffffffffffff82169050919050565b6000819050919050565b82818337600083830152505050565b60005b83811015612a2b578082015181840152602081019050612a10565b83811115612a3a576000848401525b50505050565b6000601f19601f8301169050919050565b612a5a816129b6565b8114612a6557600080fd5b50565b612a71816129f4565b8114612a7c57600080fd5b5056fea365627a7a723158208cbf58b6099b1b91ec2f90c49b04f511a80f61603ed0db323194bea70369c8516c6578706572696d656e74616cf564736f6c63430005100040",
  "source": "// SPDX-License-Identifier: MIT\r\npragma solidity >=0.4.22 <0.9.0;\r\n\r\npragma experimental ABIEncoderV2;\r\n\r\ncontract Store {\r\n    //  \r\n    struct Review {\r\n        string comment; // \r\n        uint rating; // \r\n        uint likes; // \r\n        uint dislikes; // \r\n        address author; //  \r\n        address store; // ,    \r\n        bool approved; //   \r\n    }\r\n\r\n    //    \r\n    struct StoreInfo {\r\n        string name; //  \r\n        address owner; //  \r\n        bool approved; //   \r\n    }\r\n\r\n    //    \r\n    struct UserInfo {\r\n        string name; //  \r\n        string password; //  \r\n        bool isAdmin; //    \r\n        bool isSeller; //    \r\n        bool isBuyer; //    \r\n    }\r\n\r\n    //     \r\n    mapping(address => UserInfo) private users;\r\n    //   \r\n    address[] private userAddresses;\r\n    //  \r\n    uint public userCounter = 0;\r\n\r\n    //     \r\n    mapping(uint => Review) private reviews;\r\n    //  \r\n    uint public reviewCounter = 0;\r\n\r\n    //     \r\n    mapping(address => StoreInfo) private stores;\r\n    //   \r\n    address[] private storeAddresses;\r\n    //  \r\n    uint public storeCounter = 0;\r\n\r\n    //  \r\n    constructor() public {\r\n        //     .\r\n        users[msg.sender] = UserInfo(\"Admin\", \"Admin\", true, false, false);\r\n        userAddresses.push(msg.sender);\r\n        userCounter++;\r\n\r\n        //    .\r\n        stores[msg.sender] = StoreInfo(\"Default Store\", msg.sender, true);\r\n        storeAddresses.push(msg.sender);\r\n        storeCounter++;\r\n    }\r\n\r\n    //   \r\n    function registerUser(string memory name, string memory password, address userAddress) public {\r\n        require(!users[userAddress].isAdmin && !users[userAddress].isSeller && !users[userAddress].isBuyer, \"User already registered\");\r\n        users[userAddress] = UserInfo(name, password, false, false, false);\r\n        userAddresses.push(userAddress);\r\n        userCounter++;\r\n    }\r\n\r\n    function createAdmin(string memory name, string memory password, address userAddress) public {\r\n        require(!users[userAddress].isAdmin && !users[userAddress].isSeller && !users[userAddress].isBuyer, \"User already registered\");\r\n        //  \r\n        users[msg.sender] = UserInfo(name, password, true, false, false);\r\n        userAddresses.push(userAddress);\r\n        userCounter++;\r\n    }\r\n\r\n    function approveAdmin(address userAddress) public {\r\n        // ,      \r\n        require(users[msg.sender].isAdmin, \"Only admins can approve stores\");\r\n\r\n        //      \r\n        users[userAddress].isAdmin = true;\r\n    }\r\n\r\n\r\n    //   \r\n    function registerStore(string memory name, address owner) public {\r\n        stores[owner] = StoreInfo(name, owner, false);\r\n        storeAddresses.push(owner);\r\n        storeCounter++;\r\n    }\r\n\r\n    //   \r\n    function approveStore(address storeAddress) public {\r\n        require(users[msg.sender].isAdmin, \"Only admins can approve stores\");\r\n        stores[storeAddress].approved = true;\r\n    }\r\n\r\n    //   \r\n    function registerReview(string memory comment, uint rating, address storeAddress) public {\r\n        reviewCounter++;\r\n        reviews[reviewCounter] = Review(comment, rating, 0, 0, msg.sender, storeAddress, true);\r\n    }\r\n\r\n    //     \r\n    function getReviewsForStore(address storeAddress) public view returns (Review[] memory) {\r\n        Review[] memory storeReviews = new Review[](reviewCounter);\r\n        uint index = 0;\r\n        for (uint i = 1; i <= reviewCounter; i++) {\r\n            if (reviews[i].store == storeAddress) {\r\n                storeReviews[index] = reviews[i];\r\n                index++;\r\n            }\r\n        }\r\n        Review[] memory result = new Review[](index);\r\n        for (uint j = 0; j < index; j++) {\r\n            result[j] = storeReviews[j];\r\n        }\r\n        return result;\r\n    }\r\n\r\n    //    \r\n    function getApprovedStores() public view returns (StoreInfo[] memory) {\r\n        StoreInfo[] memory approvedStores = new StoreInfo[](storeCounter);\r\n        uint index = 0;\r\n        for (uint i = 0; i < storeAddresses.length; i++) {\r\n            address storeAddress = storeAddresses[i];\r\n            StoreInfo memory store = stores[storeAddress];\r\n            if (store.approved) {\r\n                approvedStores[index] = store;\r\n                index++;\r\n            }\r\n        }\r\n        StoreInfo[] memory result = new StoreInfo[](index);\r\n        for (uint j = 0; j < index; j++) {\r\n            result[j] = approvedStores[j];\r\n        }\r\n        return result;\r\n    }\r\n\r\n    //    \r\n    function getAllUsers() public view returns (UserInfo[] memory) {\r\n        UserInfo[] memory allUsers = new UserInfo[](userCounter);\r\n        for (uint i = 0; i < userCounter; i++) {\r\n            allUsers[i] = users[userAddresses[i]];\r\n        }\r\n        return allUsers;\r\n    }\r\n\r\n   function authUser(string memory username, string memory password) public view returns (bool) {\r\n       UserInfo memory user = users[msg.sender];\r\n       if (compareStrings(user.name, username) && compareStrings(user.password, password)) {\r\n         return true;\r\n       }\r\n       return false;\r\n   }\r\n   \r\n   function compareStrings(string memory a, string memory b) public pure returns (bool) {\r\n     return keccak256(abi.encodePacked(a)) == keccak256(abi.encodePacked(b));\r\n    }\r\n\r\n    //       \r\n    function isAdmin(string memory username, string memory password) public view returns (bool) {\r\n       UserInfo memory user = users[msg.sender];\r\n       if (compareStrings(user.name, username) && compareStrings(user.password, password)) {\r\n        if (user.isAdmin) {\r\n            return true;\r\n        }\r\n        }\r\n        return false;\r\n    }\r\n\r\n    //   \r\n    function removeStore(address storeAddress) public {\r\n        require(users[msg.sender].isAdmin, \"Only admins can remove stores\");\r\n        require(stores[storeAddress].approved, \"Store is not approved\");\r\n\r\n        //    \r\n        delete stores[storeAddress];\r\n\r\n        //      \r\n        for (uint i = 0; i < storeAddresses.length; i++) {\r\n            if (storeAddresses[i] == storeAddress) {\r\n                //    \r\n                for (uint j = i; j < storeAddresses.length-1; j++) {\r\n                    storeAddresses[j] = storeAddresses[j+1];\r\n                }\r\n                //     1    \r\n                storeAddresses.pop();\r\n                break;\r\n            }\r\n        }\r\n\r\n        //   \r\n        storeCounter--;\r\n    }\r\n\r\n}\r\n",
  "sourcePath": "C:\\Users\\zover\\WebstormProjects\\ethereum-store-dapp\\src\\solidity-contracts\\contracts\\Store.sol",
  "compiler": {
    "name": "solc",
    "version": "0.5.16+commit.9c3226ce.Emscripten.clang"
  },
  "schemaVersion": "3.4.16",
  "updatedAt": "2024-03-10T11:57:34.226Z",
  "networkType": "ethereum",
  "devdoc": {
    "methods": {}
  },
  "userdoc": {
    "methods": {}
  }
}